:100000000C94FE030C9405120C9436120C94671297
:100010000C9498120C94C9120C94FA120C942B1391
:100020000C945C130C942A040C942A040C942A0457
:100030000C942A040C942A040C942A040C942A0488
:100040000C942A040C942A040C942A040C942A0478
:100050000C942A040C942A040C942A040C9478100E
:100060000C942A040C947F160C94AB170C942A045D
:100070000C942A040C942A040C942A040C942A0448
:100080000C942A040C942A040C942A040C942A0438
:100090000C94B8160C94EA170C942A040C942A04B5
:1000A0000C942A040C942A040C942A040C942A0418
:1000B0000C942A040C942A040C942A040C942A0408
:1000C0000C942A040C942A040C942A040C94F1161F
:1000D0000C9429180C942A040C942A170C94681870
:1000E0000C942A0400002100240027002A002D007F
:1000F0003000330001010000040107010A01000083
:100100002200250028002B002E00310034000201BF
:100110000000050108010B0100002000230026005B
:1001200029002C002F00320000010000030106010D
:10013000090105050505070508080808020202026D
:100140000A0A080804040404010101010101010173
:100150000303030303030303040707070C0C0C0C3E
:100160000C0C0C0C02020202060606060606060627
:100170000B0B0B0B0B0B0B0B0102102020080810B4
:100180002040102040800201020108040201010207
:1001900004081020408080402010080402018004E0
:1001A000020180402010080402010804020101023B
:1001B0000408102040800102040810204080000044
:1001C000090A02080B0C0D070603040100000000D9
:1001D000000000000000000000000000000000001F
:1001E0000000000000000000000011100F000000DF
:1001F00000000000000000000000000000000000FF
:100200000000000000000000003E5B4F5B3E3E6BC4
:100210004F6B3E1C3E7C3E1C183C7E3C181C577DA0
:10022000571C1C5E7F5E1C00183C1800FFE7C3E7EC
:10023000FF0018241800FFE7DBE7FF30483A060EFE
:100240002629792926407F050507407F05253F5A45
:100250003CE73C5A7F3E1C1C08081C1C3E7F1422B5
:100260007F22145F5F005F5F06097F017F00668960
:10027000956A606060606094A2FFA29408047E04A6
:100280000810207E201008082A1C08081C2A0808CC
:100290001E101010100C1E0C1E0C30383E3830068C
:1002A0000E3E0E06000000000000005F0000000788
:1002B000000700147F147F14242A7F2A12231308B6
:1002C000646236495620500008070300001C224192
:1002D000000041221C002A1C7F1C2A08083E080836
:1002E00000807030000808080808000060600020E6
:1002F000100804023E5149453E00427F40007249C9
:100300004949462141494D331814127F102745456C
:1003100045393C4A49493141211109073649494982
:1003200036464949291E00001400000040340000F0
:100330000008142241141414141400412214080259
:10034000015909063E415D594E7C1211127C7F49CC
:100350004949363E414141227F4141413E7F494921
:1003600049417F090909013E414151737F0808084D
:100370007F00417F41002040413F017F081422411E
:100380007F404040407F021C027F7F0408107F3E78
:100390004141413E7F090909063E4151215E7F09E5
:1003A000192946264949493203017F01033F40404C
:1003B000403F1F2040201F3F4038403F6314081437
:1003C0006303047804036159494D43007F4141416F
:1003D0000204081020004141417F04020102044050
:1003E00040404040000307080020545478407F28D4
:1003F0004444383844444428384444287F385454CA
:10040000541800087E090218A4A49C787F080404EC
:100410007800447D40002040403D007F102844008B
:1004200000417F40007C047804787C08040478381C
:1004300044444438FC1824241818242418FC7C084C
:10044000040408485454542404043F44243C4040C9
:10045000207C1C2040201C3C4030403C442810287C
:10046000444C9090907C4464544C440008364100C5
:100470000000770000004136080002010204023C3F
:100480002623263C1EA1A161123A4040207A38540E
:100490005455592155557941215454784121555489
:1004A000784020545579400C1E52721239555555DA
:1004B00059395454545939555454580000457C41C5
:1004C0000002457D420001457C40F0292429F0F0DE
:1004D000282528F07C545545002054547C547C0A2F
:1004E000097F4932494949323248484832324A48FC
:1004F00048303A4141217A3A42402078009DA0A0FC
:100500007D39444444393D4040403D3C24FF24244F
:10051000487E4943662B2FFC2F2BFF0929F620C06C
:10052000887E090320545479410000447D413048BD
:10053000484A32384040227A007A0A0A727D0D1900
:10054000317D2629292F28262929292630484D4062
:1005500020380808080808080808382F10C8ACBA5E
:100560002F102834FA00007B000008142A142222DD
:10057000142A1408AA005500AAAA55AA55AA0000D0
:1005800000FF00101010FF00141414FF001010FFE3
:1005900000FF1010F010F0141414FC001414F700F5
:1005A000FF0000FF00FF1414F404FC141417101FC4
:1005B00010101F101F1414141F00101010F0000052
:1005C00000001F101010101F10101010F01000006D
:1005D00000FF101010101010101010FF100000007D
:1005E000FF140000FF00FF00001F10170000FC04B4
:1005F000F414141710171414F404F40000FF00F797
:1006000014141414141414F700F7141414171410F9
:10061000101F101F141414F4141010F010F0000028
:100620001F101F0000001F14000000FC140000F049
:1006300010F01010FF10FF141414FF141010101FEE
:1006400000000000F010FFFFFFFFFFF0F0F0F0F0FF
:10065000FFFFFF0000000000FFFF0F0F0F0F0F381C
:10066000444438447C2A2A3E147E02020606027E56
:10067000027E0263554941633844443C04407E2075
:100680001E2006027E020299A5E7A5991C2A492A86
:100690001C4C7201724C304A4D4D30304878483015
:1006A000BC625A463D3E494949007E0101017E2A0D
:1006B0002A2A2A2A44445F444440514A4440404440
:1006C0004A51400000FF0103E080FF000008086B72
:1006D0006B083612362436060F090F06000018186C
:1006E0000000001010003040FF0101001F01011E3A
:1006F00000191D1712003C3C3C3C00000000000F9C
:100700000180961180FFB103012C2DB203012C2D25
:10071000B306012C2D012C2DB40107C003A20284C5
:10072000C101C5C2020A00C3028A2AC4028AEEC5F8
:10073000010E20003601C83A0105022A0400020019
:10074000812B04000100A0022A040000007F2B047A
:100750000000009F04E010021C07123732292D29E7
:10076000252B3900010310E110031D07062E2C294B
:100770002D2E2E373F0000021013800A29806412AC
:100780000180321180FF3A81050AB1830006030A15
:10079000360108B6021502B40100C08202700AC117
:1007A0000105C2020102C5823C380AFC021115E0B3
:1007B0001009160920211B131917151E2B040502F9
:1007C0000EE1900B14081E221D181E1B1A242B0666
:1007D00006020F0A2A04000200812B040002008195
:1007E00013800A2980FF7C3C3E5E2B3D3F2F5B5DE2
:1007F0003B2C2A225C002C04D219D92211241FBEC2
:10080000CFEFD1E2DEBFCDBF00E00CBF15E0A0E02E
:10081000B2E0E4E6FBE700E00BBF02C007900D92F8
:10082000A23DB107D9F71BE0A2EDB5E001C01D92D2
:10083000AD33B107E1F717E0CCEFD7E004C0229762
:10084000FE010E94AC3DC63FD107C9F70E946F165A
:100850000C94153A0C94000083ED95E066E047E0B7
:1008600028E00E94BF1E10920806109209061092FE
:100870000A0610920B0610920C0610920D061092AA
:100880000E0610920F06109210061092110610928A
:10089000120610921306109214061092150610926A
:1008A0001606109217060E94C01060931B067093E4
:1008B0001C0680931D0690931E0608959091D20504
:1008C00080918705981711F40E94C90A08959091A4
:1008D000D20580918705981711F40E94BD0A0895EA
:1008E000EF92FF920F931F93CF93DF93EC017B0165
:1008F00080E00E94A3142091E2043091E3048C0173
:10090000021B130B81E00E94A3142091E404309198
:10091000E504821B930B9C01C8010496099710F40F
:1009200000E010E0C9010496099710F420E030E0DF
:10093000C80160E870E00E945A3D79836883C9016C
:1009400060E870E00E945A3DF701718360830E9465
:10095000C0107B018C0180911B0690911C06A09118
:100960001D06B0911E06E816F9060A071B0740F49B
:10097000E0921B06F0921C0600931D0610931E06C3
:100980008091E6049091E704A091E804B091E90415
:1009900020911B0630911C0640911D0650911E06A9
:1009A000820F931FA41FB51F8E159F05A007B107C7
:1009B00010F080E019C0E0921B06F0921C06009334
:1009C0001D0610931E0684E00E94731420E0892BFC
:1009D00009F421E080911A06882321F080E0222387
:1009E00009F481E020931A06DF91CF911F910F91B6
:1009F000FF90EF90089584E060E00E948D1384E002
:100A000061E00E94401481E00E94A3149093E304EB
:100A10008093E20480E00E94A3149093E504809305
:100A2000E404089585EE98E065E00E943D25882362
:100A300029F50F920F9280E092E0EDB7FEB7928316
:100A400081830E94460A88E192E0EDB7FEB7928367
:100A500081830E94460A8CE292E0EDB7FEB7928352
:100A600081830E94460A84E492E0EDB7FEB7928348
:100A700081830E94460A0F900F90FFCF0F920F9232
:100A80008DE792E0EDB7FEB7928381830E94460A1C
:100A90000F900F9008950F931F9303ED15E0C80179
:100AA00061E00E94B622C80160E00E946921C8018D
:100AB00060E070E040E050E00E94AD1EC80160E0E0
:100AC00070E00E94B91EC80161E00E94B31EC80117
:100AD0006FE170E00E94A31F1F910F910895EF92A4
:100AE000FF920F931F93CF93DF93EC018091180631
:100AF000909119068C179D0789F1D0931906C09320
:100B0000180683ED95E060E070E044E950E020E8ED
:100B100030E00CE010E0E0EEEE2EE7E0FE2E0E946A
:100B2000F12083ED95E061E00E94B31E83ED95E036
:100B30006FE178EF0E94B91E83ED95E060E070E010
:100B400046E950E00E94AD1E83ED95E061E00E9411
:100B5000B31E83ED95E0BE010E945C16DF91CF913C
:100B60001F910F91FF90EF9008958CE892E00E9402
:100B70006F0508952F923F924F925F926F927F92EE
:100B80008F929F92AF92BF92CF92DF92EF92FF929D
:100B90000F931F93DF93CF93CDB7DEB761970FB657
:100BA000F894DEBF0FBECDBF8DB79EB74091390B15
:100BB00050913A0B4115510511F09A0104C0209152
:100BC000DC043091DD046091E0047091E104821B4B
:100BD000930B8617970730F52DB73EB74115510592
:100BE00021F44091DC045091DD0400D000D0EDB739
:100BF000FEB731968DE892E0ADB7BEB712969C93E2
:100C00008E931197241B350B338322837583648362
:100C10000E94460AEDB7FEB736960FB6F894FEBFAF
:100C20000FBEEDBF8091FF05882311F4992404C005
:100C30001092FF05992493941A8219821C821B82B8
:100C4000F894909187058091D205198A981711F030
:100C5000F1E0F98B78942989222309F441C030917D
:100C60001F06809187053817E9F02091870500D08D
:100C700000D0EDB7FEB731968EE992E0ADB7BEB7C2
:100C800012969C938E93119732831382248315823C
:100C90000E94460AEDB7FEB736960FB6F894FEBF2F
:100CA0000FBEEDBF0E949E0C40918D0550918E05A8
:100CB00056954795809124069091250620918F05A1
:100CC00030919005369527956091260670912706FC
:100CD000621B730B841B950B0E94F10A9924939459
:100CE000CE010196BE016D5F7F4F0E947004D82E29
:100CF00089819A81892B29F48B819C81892B09F424
:100D000057C0E0902006F090210600912206109135
:100D10002306CE010596BE01695F7F4F0E94D50A6A
:100D2000882309F445C08D819E818A30910548F45D
:100D3000E0902006F090210620EE3FEFE20EF31E39
:100D40000DC08637910510F420E009C0E090200620
:100D5000F090210680E290E0E80EF91E21E08F81FC
:100D600098858A30910538F4009122061091230667
:100D7000005210400CC08637910538F000912206D1
:100D800010912306005E1F4F02C0222339F0C701D5
:100D9000B8010E94F10A992493940AC00E94240B7E
:100DA0006B817C8189819A810E94A60D0E94900BA3
:100DB000DD2009F41CC1ADB7BEB71A970FB6F89481
:100DC000BEBF0FBEADBFEDB7FEB7319685EB92E06B
:100DD00012969C938E93119780912C0690912D06DC
:100DE000A0912E06B0912F0682839383A483B583AE
:100DF0008091280690912906A0912A06B0912B0691
:100E000086839783A087B1870E94460AA090280610
:100E1000B0902906C0902A06D0902B06E0902C06B0
:100E2000F0902D0600912E0610912F06EDB7FEB71B
:100E30003A960FB6F894FEBF0FBEEDBF809106063E
:100E400090910706892BE9F52DB73EB72A5030401F
:100E50000FB6F8943EBF0FBE2DBFEDB7FEB731966B
:100E600084ED92E0ADB7BEB712969C938E93119726
:100E7000A282B382C482D582E682F782008711877C
:100E80000E94460AE0920C06F0920D0600930E06B0
:100E900010930F06A0920806B0920906C0920A06A7
:100EA000D0920B0681E090E09093070680930606AF
:100EB000EDB7FEB73A960FB6F894FEBF0FBEEDBF82
:100EC00096C02DB73EB72A5030400FB6F8943EBFBB
:100ED0000FBE2DBFEDB7FEB7319680EF92E0ADB7F4
:100EE000BEB712969C938E931197A282B382C4824E
:100EF000D582E682F782008711870E94460AE09237
:100F00001406F09215060093160610931706A09289
:100F10001006B0921106C0921206D09213061092DB
:100F2000070610920606EDB7FEB73A960FB6F8948C
:100F3000FEBF0FBEEDBF89E698E06AE073E00E9455
:100F40005C16209108063091090640910A065091DE
:100F50000B0660910C0670910D0680910E06909123
:100F60000F06A0901006B0901106C0901206D09007
:100F70001306E0901406F0901506009116061091E5
:100F800017060E94B60F8C0100D00F9280E393E009
:100F9000ADB7BEB712969C938E93119714961C937F
:100FA0000E9313970E94460A0F900F900F900F9088
:100FB00010161106E4F48091000690910106801746
:100FC000910728F4909303068093020604C01093BF
:100FD000030600930206409100065091010680919D
:100FE000040690910506B8010E947A0E03C099206C
:100FF00009F4F8C00E94610B0E94900B80910206D8
:1010000090910306029708F4D4C0E0918D05F09109
:101010008E05FC87EB8720918F05309190053E87E8
:101020002D8781E090E0988B8F871A861986B7C04C
:10103000E0910406F0910506A985BA85EA0FFB1F29
:10104000408151816281738180911F060E94FF0B54
:101050001B012C018091200690912106A0E0B0E0B8
:10106000281A390A4A0A5B0AE0910406F09105063B
:1010700029853A85E20FF31F408151816281738196
:1010800080911F060E94B10BAB01BC01E0912206CA
:10109000F09123062091200630912106C901A0E09D
:1010A000B0E082159305A405B5050CF06DC08B85E5
:1010B0009C85280F391FC901A0E0B0E02816390629
:1010C0004A065B060CF060C0CF01A0E0B0E03A0138
:1010D0004B01681A790A8A0A9B0A86159705A805A2
:1010E000B9050CF051C0AD85BE85EA0FFB1FCF01DD
:1010F000A0E0B0E0681679068A069B060CF044C0B2
:1011000009851A85085F1F4FE0910406F0910506D6
:10111000E00FF11F408151816281738180911F0630
:101120000E94FF0B5B016C018091200690912106CB
:10113000A0E0B0E0A81AB90ACA0ADB0AE0910406E6
:10114000F0910506E00FF11F4081518162817381AA
:1011500080911F060E94B10B7B018C0180912206B9
:1011600090912306A0E0B0E0E81AF90A0A0B1B0BE5
:1011700083ED95E0B101A30195018701F0EEEF2E1B
:10118000FFEFFF2E0E94691CEF85F8893196F88BDE
:10119000EF8729853A85285F3F4F3A8729878091D5
:1011A000020690910306AF85B889A817B90708F41D
:1011B0003FCF0E94B505B989BB23A1F0F894809177
:1011C0001F06809387058093D20578940F920F9223
:1011D00084E493E0EDB7FEB7928381830E94460AD0
:1011E0000F900F908091060690910706892B19F4B5
:1011F00084E593E002C08AE593E00E946F05619662
:101200000FB6F894DEBF0FBECDBFCF91DF911F9117
:101210000F91FF90EF90DF90CF90BF90AF909F9095
:101220008F907F906F905F904F903F902F90089598
:10123000CF92DF92EF92FF920F931F93CF93DF93A2
:1012400089E698E040E855E260E070E00E94A71867
:1012500089E698E06EE573E00E945C1689E698E006
:101260000E9487190E944B050E9412050E94FB04F0
:101270000E94980AC0901F06CC2DD0E074E0CC0FDD
:10128000DD1F7A95E1F767E2C62E65E0D62ECC0E1B
:10129000DD1EFE01E55DFA4FD6011C966D917D9134
:1012A0008D919C911F972081318142815381620FE2
:1012B000731F841F951F22E030E040E050E00E9441
:1012C0008F3D79018A01C15DDA4F688179818A8118
:1012D0009B81F6012081318142815381620F731F0E
:1012E000841F951F22E030E040E050E00E948F3DD7
:1012F000C801B7010E94430C80918D0590918E0525
:1013000096958795409120065091210660918F0512
:10131000709190057695679520912206309123066D
:10132000620F731F840F951F0E94560D81E08093FA
:10133000FF0582E060E00E948D1382E061E00E9480
:10134000401483E060E00E948D1383E061E00E941E
:10135000401481E067E674E042E050E00E948911A9
:1013600080E06EE574E042E050E00E94891168EE92
:1013700073E080E090E00E94CE1084E690E09093CD
:101380000106809300068DB79EB72091390B3091EE
:101390003A0B2115310511F0A90104C04091DC047C
:1013A0005091DD046091E0047091E104841B950B81
:1013B000861B970B80529340B0F48DB79EB72115D2
:1013C000310521F42091DC043091DD04821B930B64
:1013D000861B970B03E0969587950A95E1F7909306
:1013E000010680930006809100069091010613E0AB
:1013F000880F991F1A95E1F70E94B1378093040670
:101400009093050600D00F928AE693E0ADB7BEB781
:1014100012969C938E9311978091000690910106ED
:1014200014969C938E9313970E94460A109203067B
:10143000109202064DB75EB72091390B30913A0BEE
:101440000F900F900F900F902115310521F42091EE
:10145000DC043091DD0400D00F928BE793E0EDB710
:10146000FEB792838183421B530B548343830E94B4
:10147000460A0F900F900F900F90DF91CF911F9120
:101480000F91FF90EF90DF90CF900895CF92DF9271
:10149000EF92FF920F931F93DF93CF93CDB7DEB7F9
:1014A000EDB6FEB6CEB68091EA04882359F18DB729
:1014B0009EB7805091400FB6F8949EBF0FBE8DBF6F
:1014C0000DB71EB70F5F1F4FFE013E96C80160E0CB
:1014D00071E04C855D859F010E94473A89E698E05E
:1014E00067E873E00E94591689E698E0B8010E9407
:1014F0005C162E2D3C2DC9010FB6F8949EBF0FBE71
:101500008DBF08C08DB79EB79C010FB6F8943EBF43
:101510000FBE2DBF0FB6F894FEBE0FBEEDBECF912D
:10152000DF911F910F91FF90EF90DF90CF90089582
:10153000109228061092290610922A0610922B0665
:1015400010922C0610922D0610922E0610922F0645
:101550001092250610922406109227061092260655
:101560001092210610922006109223061092220655
:101570008091870580931F060895809187058530A7
:1015800028F4809187058F5F809387058091870578
:10159000089580918705882329F0809187058150DF
:1015A00080938705809187050895FC01DB01809178
:1015B0002406909125062091200630912106821B59
:1015C000930B91838083809126069091270620912A
:1015D000220630912306821B930B8D939C9381E00E
:1015E000089597FF03C0E0E0F0E010C0E0911F060F
:1015F000F0E0EE0FFF1FE551FB4F0190F081E02D71
:10160000E058F0408E179F0708F4FC01F093210684
:10161000E093200677FF03C060E070E010C0E09127
:101620001F06F0E0EE0FFF1FE950FB4F0190F08125
:10163000E02DE05AF040E617F70708F4BF01709379
:101640002306609322060895AF92BF92CF92DF9255
:10165000EF92FF920F931F9340912406509125061D
:1016600042505040209126063091270622503040AB
:1016700080911F0666E0869FC001112460912006BC
:10168000709121068A01061B170B6091220670914A
:1016900023067901E61AF70A8D5F9A4F63ED75E02C
:1016A000F5E0CF2ED12CE5E0AE2EB12C0E946336B2
:1016B0001F910F91FF90EF90DF90CF90BF90AF9070
:1016C0000895AF92BF92CF92DF92EF92FF920F9365
:1016D0001F9380911F0626E0829FC0011124409134
:1016E00020065091210620912206309123068D5F1D
:1016F0009A4F63ED75E000E010E0EE24FF24B0E8BF
:10170000CB2ED12CA0EAAA2EB12C0E9463361F91B9
:101710000F91FF90EF90DF90CF90BF90AF90089522
:101720000F931F93609124067091250680912006E7
:1017300090912106681B790B40912606509127064F
:101740008091220690912306481B590B83ED95E06A
:1017500022E030E000E018EF0E94351C1F910F914D
:101760000895AF92BF92CF92DF92EF92FF920F93C4
:101770001F935A016B01A82FBB27A7FDB09500D07E
:101780000F9267E275E0FD0184E0EE0FFF1F8A957E
:10179000E1F7E60FF71F2081318142815381AA0FC3
:1017A000BB1FCD01019613E0880F991F1A95E1F731
:1017B000680F791FFB01E080F18002811381A9503D
:1017C000BB4F8D919C91A0E0B0E0EDB7FEB7818357
:1017D0009283A383B483C601B501AA24BB24650107
:1017E0000E94D7140F900F900F900F901F910F91A0
:1017F000FF90EF90DF90CF90BF90AF900895AF92A1
:10180000BF92CF92DF92EF92FF920F931F935A01F4
:101810006B01A82FBB27A7FDB09500D00F92FD014B
:1018200004E0EE0FFF1F0A95E1F787E295E0E80F6D
:10183000F91F2481358146815781E484F58406852A
:101840001785AA0FBB1FA551BB4F8D919C91A0E09E
:10185000B0E0EDB7FEB781839283A383B483C60162
:10186000B501AA24BB2465010E94D7140F900F90E4
:101870000F900F901F910F91FF90EF90DF90CF90FE
:10188000BF90AF900895AF92BF92CF92DF92EF9248
:10189000FF920F931F937B018C0159016A01809184
:1018A0001F06B801A7010E94FF0B709321066093E9
:1018B000200680911F06B601A5010E94B10B209160
:1018C00020063091210637FF03C0E0E0F0E010C0B1
:1018D000E0911F06F0E0EE0FFF1FE551FB4F019076
:1018E000F081E02DE058F0402E173F0708F4F90191
:1018F000F0932106E093200677FF03C060E070E0DC
:1019000010C0E0911F06F0E0EE0FFF1FE950FB4F03
:101910000190F081E02DE05AF040E617F70708F457
:10192000BF0170932306609322061F910F91FF90D1
:10193000EF90DF90CF90BF90AF9008958091870592
:1019400080931F06409128065091290660912A062F
:1019500070912B060E94FF0B70932506609324065E
:1019600040912C0650912D0660912E0670912F0605
:1019700080911F060E94B10B709327066093260684
:1019800080911F060895AF92BF92CF92DF92EF929F
:10199000FF920F931F93A82FBB27A7FDB09500D0F0
:1019A0000F92CD01880F991FFC01E950FB4FE08099
:1019B000F18000E010E0E7E2F5E034E0AA0FBB1FA1
:1019C0003A95E1F7AE0FBF1FAD90BD90CD90DC9082
:1019D000019623E0880F991F2A95E1F7E80FF91F78
:1019E00080819181A281B381EDB7FEB7818392831B
:1019F000A383B483CB01BA0120E030E040E050E0A3
:101A00000E94D7140F900F900F900F901F910F917D
:101A1000FF90EF90DF90CF90BF90AF900895AF927E
:101A2000BF92CF92DF92EF92FF920F931F9399276D
:101A300087FD909500D00F92FC01EE0FFF1FE5513E
:101A4000FB4FE080F18000E010E0B4E0880F991FC8
:101A5000BA95E1F7E7E2F5E0DF01A80FB91F1496A8
:101A6000AD90BD90CD90DC901797E80FF91F84855D
:101A70009585A685B785EDB7FEB781839283A3834D
:101A8000B483CB01BA0120E030E040E050E00E9496
:101A9000D7140F900F900F900F901F910F91FF9000
:101AA000EF90DF90CF90BF90AF90089597FF03C065
:101AB00080E090E00EC0E0911F06F0E0EE0FFF1F07
:101AC000E551FB4F0190F081E02DE817F90708F48C
:101AD000CF01909325068093240677FF03C060E032
:101AE00070E00EC0E0911F06F0E0EE0FFF1FE9501E
:101AF000FB4F0190F081E02DE617F70708F4BF01D6
:101B00007093270660932606AC0160E070E0809138
:101B10001F060E940F0D609328067093290680937C
:101B20002A0690932B06409126065091270660E0E6
:101B300070E080911F060E94C30C60932C06709386
:101B40002D0680932E0690932F060895409124062B
:101B5000509125062091260630912706260F371F23
:101B6000840F951FB9010E94560D0895EF92FF92C0
:101B70000F931F93CF93DF93EC0160E070E04AE096
:101B800050E00E94E6387B018C01611571058105EA
:101B9000910551F52091370B3091380B22323105E8
:101BA00019F500D000D0EDB7FEB7319686EC93E082
:101BB000ADB7BEB712969C938E9311973383228351
:101BC000D583C4830E94460A8DB79EB706960FB68A
:101BD000F8949EBF0FBE8DBF6091370B7091380B8C
:101BE00080E090E00E940A1BB701C801DF91CF910D
:101BF0001F910F91FF90EF9008954F925F926F9217
:101C00007F928F929F92BF92CF92DF92EF92FF923C
:101C10000F931F93CF93DF934B016A012901380182
:101C20007C01E60EF71E00E010E0E801C80DD91DAA
:101C3000F701B080BB2099F0C201801B910B029785
:101C4000A0F06B2D772767FD7095C3010E942D3A98
:101C50000F5F1F4F0894E11CF11C009711F02196B3
:101C600004C0F601B1926F01E0CFF6011082CE01FF
:101C7000DF91CF911F910F91FF90EF90DF90CF9068
:101C8000BF909F908F907F906F905F904F9008953E
:101C9000EF92FF920F931F93CF93DF938C017B0101
:101CA000C0E0D0E00894E108F10815C089E698E0AA
:101CB0000E942D19892BD1F389E698E00E945E19C4
:101CC000F801EC0FFD1F80838D3041F08A3031F038
:101CD000882321F02196CE15DF0540F30C0F1D1F40
:101CE000F8011082CE01DF91CF911F910F91FF90EB
:101CF000EF9008952F923F924F925F926F927F9252
:101D00008F929F92AF92BF92CF92DF92EF92FF920B
:101D10000F931F93DF93CF93CDB7DEB728970FB6FE
:101D2000F894DEBF0FBECDBFB82EA92E1B012A012D
:101D30002DB73EB73A8329838DB79EB780970FB6EC
:101D4000F8949EBF0FBE8DBFEDB6FEB60894E11CA1
:101D5000F11CADB7BEB790970FB6F894BEBF0FBEDB
:101D6000ADBFCDB6DEB60894C11CD11CEDB7FEB731
:101D7000B0970FB6F894FEBF0FBEEDBF0DB71EB7FC
:101D80000F5F1F4F00D000D0EDB7FEB7319682EF46
:101D900093E0ADB7BEB712969C938E931197738361
:101DA0006283558344830E94460AEDB7FEB7369698
:101DB0000FB6F894FEBF0FBEEDBF1214130414F457
:101DC00057FE1EC000D000D0EDB7FEB731968DE1B2
:101DD00094E0ADB7BEB712969C938E931197338261
:101DE0002282558244820E94460A2FEF3FEFEDB7D0
:101DF000FEB736960FB6F894FEBF0FBEEDBF95C086
:101E000000D00F9285E394E0ADB7BEB712969C93D5
:101E10008E93119714965C924E9213970E94460AE5
:101E20000F900F900F900F9089E698E069E474E0AE
:101E30000E945C160F831887ED82FE82CB82DC82C3
:101E40002B2D3A2DC9013C01882499248F81988536
:101E500060E270E00E94480EF82EE92E89E698E0D4
:101E600069E474E00E945C168F81988562E070E0FE
:101E70004D815E812F2D3E2D0BE414E00E94FD0D5F
:101E8000BC018F8198854B815C812F2D3E2D0E9456
:101E9000FD0D8B819C810E94B60D5B016C018D81D3
:101EA0009E810E94B60D7B018C018414950484F5FB
:101EB000EDB7FEB73A970FB6F894FEBF0FBEEDBF71
:101EC00031962DE434E0ADB7BEB712963C932E9315
:101ED00011976283738384839583A682B782C086B9
:101EE000D1860E94460AD3011496ED92FD920D937D
:101EF0001C931797F301A082B182C282D3822DB7BF
:101F00003EB7265F3F4F0FB6F8943EBF0FBE2DBFC2
:101F10000894811C911C88E090E0680E791E821460
:101F200093040CF493CF20E030E0C901A981BA8179
:101F30000FB6F894BEBF0FBEADBF28960FB6F8948B
:101F4000DEBF0FBECDBFCF91DF911F910F91FF90EC
:101F5000EF90DF90CF90BF90AF909F908F907F9049
:101F60006F905F904F903F902F9008952F923F92E7
:101F70004F925F926F927F928F929F92AF92BF9299
:101F8000CF92DF92EF92FF920F931F93DF93CF9345
:101F9000CDB7DEB764970FB6F894DEBF0FBECDBFE6
:101FA00029833A834B835C836D837E838F839887F9
:101FB000A986BA86CB86DC86ED86FE860F87188BCF
:101FC0002DB63EB6CD80DE80EF80F88489809A8081
:101FD000AB80BC804D845E846F84788889859A85C7
:101FE000AB85BC85898B9A8BAB8BBC8BADB7BEB7F1
:101FF00090970FB6F894BEBF0FBEADBF0DB71EB71A
:102000000F5F1F4FC80160E270E00E94480E8DB75D
:102010009EB742970FB6F8949EBF0FBE8DBFEDB727
:10202000FEB731968FE594E0ADB7BEB712969C939C
:102030008E931197C282D382E482F5828682978240
:10204000A086B186428653866486758689899A8978
:10205000AB89BC8986879787A08BB18B0E94460A83
:10206000ADB7BEB752960FB6F894BEBF0FBEADBFA8
:1020700089E698E0B8010E945C16C80102960E94A9
:10208000B60D162F072F00D00F92EDB7FEB7319681
:102090008DE894E0ADB7BEB712969C938E931197DE
:1020A000128303830E94460A0F900F900F900F90A7
:1020B000812F902F0FB6F8943EBE0FBE2DBE6496B2
:1020C0000FB6F894DEBF0FBECDBFCF91DF911F9149
:1020D0000F91FF90EF90DF90CF90BF90AF909F90C7
:1020E0008F907F906F905F904F903F902F900895CA
:1020F0001F920F920FB60F9211242F933F938F933D
:102100009F93AF93BF938091340690913506A09131
:102110003606B0913706309138060196A11DB11DE3
:10212000232F2D5F2D3720F02D570196A11DB11DB6
:10213000209338068093340690933506A093360694
:10214000B09337068091300690913106A091320607
:10215000B09133060196A11DB11D80933006909376
:102160003106A0933206B0933306BF91AF919F9191
:102170008F913F912F910F900FBE0F901F90189548
:102180008FB7F89420913406309135064091360689
:10219000509137068FBFB901CA0108959B01AC0168
:1021A0007FB7F8948091300690913106A091320665
:1021B000B091330666B5A89B05C06F3F19F0019634
:1021C000A11DB11D7FBFBA2FA92F982F8827860F79
:1021D000911DA11DB11D62E0880F991FAA1FBB1F91
:1021E0006A95D1F7BC012DC0FFB7F89480913006F5
:1021F00090913106A0913206B0913306E6B5A89BC6
:1022000005C0EF3F19F00196A11DB11DFFBFBA2F08
:10221000A92F982F88278E0F911DA11DB11DE2E0D7
:10222000880F991FAA1FBB1FEA95D1F7861B970B32
:10223000885E9340C8F22150304040405040685181
:102240007C4F211531054105510571F608957894AB
:1022500084B5826084BD84B5816084BD85B58260AB
:1022600085BD85B5816085BDEEE6F0E08081816049
:102270008083E1E8F0E01082808182608083808149
:1022800081608083E0E8F0E0808181608083E1EB21
:10229000F0E0808184608083E0EBF0E08081816009
:1022A0008083E1E9F0E080818260808380818160C9
:1022B0008083E0E9F0E0808181608083E1EAF0E002
:1022C000808182608083808181608083E0EAF0E0A9
:1022D000808181608083E1E2F1E08081826080839F
:1022E000808181608083E0E2F1E080818160808391
:1022F000EAE7F0E08081846080838081826080836F
:102300008081816080838081806880831092C10099
:102310000895883008F078C0E82FF0E0EE0FFF1F36
:10232000E75CF94F718360838330D9F0843030F4F7
:10233000813009F444C0823060F439C0853051F1F5
:102340008530D8F0863009F446C0873009F05CC08B
:102350004FC0809169008C7F842B80936900E89A3C
:10236000089580916900440F551F440F551F837FC6
:10237000842B80936900E99A08958091690074E044
:10238000440F551F7A95E1F78F7C842B8093690069
:10239000EA9A08958091690066E0440F551F6A9596
:1023A000E1F78F73842B80936900EB9A08958091F5
:1023B0006A008C7F842B80936A00EC9A0895809148
:1023C0006A00440F551F440F551F837F842B809351
:1023D0006A00ED9A089580916A0024E0440F551F29
:1023E0002A95E1F78F7C842B80936A00EE9A0895FA
:1023F00080916A0096E0440F551F9A95E1F78F731C
:10240000842B80936A00EF9A08951F920F920FB663
:102410000F920BB60F9211242F933F934F935F931C
:102420006F937F938F939F93AF93BF93EF93FF939C
:1024300080913D0690913E06892B29F0E0913D0662
:10244000F0913E061995FF91EF91BF91AF919F9149
:102450008F917F916F915F914F913F912F910F904D
:102460000BBE0F900FBE0F901F9018951F920F92EA
:102470000FB60F920BB60F9211242F933F934F93E9
:102480005F936F937F938F939F93AF93BF93EF93DC
:10249000FF9380913F0690914006892B29F0E091AF
:1024A0003F06F09140061995FF91EF91BF91AF91D2
:1024B0009F918F917F916F915F914F913F912F915C
:1024C0000F900BBE0F900FBE0F901F9018951F928C
:1024D0000F920FB60F920BB60F9211242F933F93CA
:1024E0004F935F936F937F938F939F93AF93BF931C
:1024F000EF93FF938091410690914206892B29F03A
:10250000E0914106F09142061995FF91EF91BF913C
:10251000AF919F918F917F916F915F914F913F917B
:102520002F910F900BBE0F900FBE0F901F9018951C
:102530001F920F920FB60F920BB60F9211242F938A
:102540003F934F935F936F937F938F939F93AF933B
:10255000BF93EF93FF938091430690914406892B9C
:1025600029F0E0914306F09144061995FF91EF910F
:10257000BF91AF919F918F917F916F915F914F919B
:102580003F912F910F900BBE0F900FBE0F901F9099
:1025900018951F920F920FB60F920BB60F9211243F
:1025A0002F933F934F935F936F937F938F939F935B
:1025B000AF93BF93EF93FF938091390690913A06C2
:1025C000892B29F0E0913906F0913A061995FF918F
:1025D000EF91BF91AF919F918F917F916F915F919B
:1025E0004F913F912F910F900BBE0F900FBE0F9008
:1025F0001F9018951F920F920FB60F920BB60F9265
:1026000011242F933F934F935F936F937F938F93F7
:102610009F93AF93BF93EF93FF9380913B0690916D
:102620003C06892B29F0E0913B06F0913C06199578
:10263000FF91EF91BF91AF919F918F917F916F919A
:102640005F914F913F912F910F900BBE0F900FBE56
:102650000F901F9018951F920F920FB60F920BB606
:102660000F9211242F933F934F935F936F937F9318
:102670008F939F93AF93BF93EF93FF938091450602
:1026800090914606892B29F0E0914506F091460687
:102690001995FF91EF91BF91AF919F918F917F918C
:1026A0006F915F914F913F912F910F900BBE0F90C3
:1026B0000FBE0F901F9018951F920F920FB60F929A
:1026C0000BB60F9211242F933F934F935F936F9309
:1026D0007F938F939F93AF93BF93EF93FF938091DB
:1026E000470690914806892B29F0E0914706F09122
:1026F00048061995FF91EF91BF91AF919F918F91EE
:102700007F916F915F914F913F912F910F900BBEF1
:102710000F900FBE0F901F901895CF93DF93482F07
:1027200050E0CA0188589E4FFC0134914E5C5E4FC8
:10273000FA018491882369F190E0880F991FFC01C8
:10274000EC51FF4FA591B491FC01E250FF4FC591B0
:10275000D491662351F42FB7F8948C91932F9095D0
:1027600089238C93888189230BC0623061F42FB751
:10277000F8948C91932F909589238C938881832B47
:1027800088832FBF06C09FB7F8948C91832B8C93BE
:102790009FBFDF91CF910895893009F449C08A30F5
:1027A000A0F4843051F1853040F4823079F18330E7
:1027B00000F5813009F063C026C0873079F1883098
:1027C00098F5863009F05BC025C08D3009F442C011
:1027D0008E3028F48B30B1F18C30C0F52DC08031B3
:1027E00009F442C0813109F445C08F3009F047C077
:1027F00037C0809180008F7703C0809180008F7DEB
:1028000080938000089584B58F7702C084B58F7D52
:1028100084BD08958091B0008F7703C08091B0008F
:102820008F7D8093B0000895809190008F7707C0CE
:10283000809190008F7D03C080919000877F80936E
:10284000900008958091A0008F7707C08091A0002C
:102850008F7D03C08091A000877F8093A0000895A2
:10286000809120018F7703C0809120018F7D80931C
:102870002001089580912001877F80932001089591
:10288000FF920F931F93F62E482F50E0CA018254F7
:102890009E4FFC012491CA0188589E4FFC0114915F
:1028A0004E5C5E4FFA0104910023C9F0222319F017
:1028B000822F0E94CC13E02FF0E0EE0FFF1FE250BA
:1028C000FF4FA591B4919FB7F894FF2021F48C910C
:1028D0001095812302C08C91812B8C939FBF1F91F7
:1028E0000F91FF9008950F931F93482F50E0CA0156
:1028F00082549E4FFC012491CA0188589E4FFC01CE
:1029000004914E5C5E4FFA011491112319F420E0FA
:1029100030E015C0222319F0822F0E94CC13812FA2
:1029200090E0880F991F885E9E4FFC01A591B4919D
:102930008C9120E030E0802311F021E030E0C901EB
:102940001F910F910895382F863308F03653209148
:102950007B00832F86958695869590E08170907098
:1029600043E0880F991F4A95E1F7277F282B209392
:102970007B003770809188058295880F880F807C56
:10298000832B80937C0080917A00806480937A000E
:1029900080917A0086FDFCCF2091780040917900EB
:1029A000942F80E030E0282B392BC90108952F9215
:1029B0003F924F925F926F927F928F929F92AF92CF
:1029C000BF92CF92DF92EF92FF920F931F93DF930C
:1029D000CF93CDB7DEB73B014C0119012A016E89B7
:1029E0007F89888D998D6A197B098C099D09621AE6
:1029F000730A840A950AA40193010E94273DE218F4
:102A0000F30804091509A80197010E948F3D2A0DBA
:102A10003B1D4C1D5D1DB901CA01CF91DF911F9176
:102A20000F91FF90EF90DF90CF90BF90AF909F906D
:102A30008F907F906F905F904F903F902F90089570
:102A4000CF92DF92EF92FF920F931F93CF93DF937A
:102A50007C016B018A01C0E0D0E00FC0D6016D910E
:102A60006D01D701ED91FC910190F081E02DC7013E
:102A70001995C80FD91F015010400115110571F7A4
:102A8000CE01DF91CF911F910F91FF90EF90DF90DA
:102A9000CF900895EF92FF920F931F938C01DC016A
:102AA000ED91FC910190F081E02D6DE019957C0194
:102AB000D801ED91FC910190F081E02DC8016AE010
:102AC00019959C012E0D3F1DC9011F910F91FF907B
:102AD000EF900895EF92FF920F931F937C01DC011A
:102AE000ED91FC910190F081E02D19958C01C701C9
:102AF0000E944A15080F191FC8011F910F91FF90DE
:102B0000EF900895CF93DF93DB010D900020E9F75C
:102B10001197A61BB70BEC01E881F9810280F381C4
:102B2000E02DAD011995DF91CF9108954F925F92FD
:102B30007F928F929F92AF92BF92CF92DF92EF924D
:102B4000FF920F931F93DF93CF93CDB7DEB7A1977B
:102B50000FB6F894DEBF0FBECDBF2C01742ECB0193
:102B6000223008F42AE019A231E2C32ED12CCC0E77
:102B7000DD1E822E9924AA24BB24672D752FA50162
:102B800094010E946D3D79018A01C801B701A50138
:102B900094010E94273D472D461B0894C108D10887
:102BA0004A3014F4405D01C0495CF6014083E114F1
:102BB000F1040105110521F07E2C5F2DC801DDCF48
:102BC000C201B6010E948215A1960FB6F894DEBF2D
:102BD0000FBECDBFCF91DF911F910F91FF90EF906E
:102BE000DF90CF90BF90AF909F908F907F905F903D
:102BF0004F900895CF92DF92EF92FF920F931F9321
:102C0000CF93DF93EC016A017B012115310541F47B
:102C1000E881F9810190F081E02D642F19951FC0A2
:102C20002A303105D1F477FF17C0E881F98101908E
:102C3000F081E02D6DE219958C0144275527BA01EA
:102C40004C195D096E097F09CE012AE00E94961594
:102C50009801280F391F04C02AE00E9496159C0194
:102C6000C901DF91CF911F910F91FF90EF90DF90FD
:102C7000CF900895CF92DF92EF92FF920F931F9320
:102C80006C017B019A010027F7FC0095102FB80119
:102C9000A7010E94FA158C01C6010E944A15080F6F
:102CA000191FC8011F910F91FF90EF90DF90CF90F7
:102CB00008950E9482150895EF92FF920F931F933B
:102CC0007C010E9482158C01C7010E944A15080FE1
:102CD000191FC8011F910F91FF90EF900895CF9396
:102CE000DF930E9427110E941809C2E6D7E10E94D3
:102CF000BA052097E1F30E946217F9CF08951F9259
:102D00000F920FB60F920BB60F9211242F933F9391
:102D10004F938F939F93EF93FF934091C600209121
:102D2000890630918A062F5F3F4F2F733070809154
:102D30008B0690918C062817390759F0E091890687
:102D4000F0918A06E75BF94F408330938A0620931F
:102D50008906FF91EF919F918F914F913F912F9114
:102D60000F900BBE0F900FBE0F901F9018950895F7
:102D70001F920F920FB60F920BB60F9211242F9342
:102D80003F934F938F939F93EF93FF934091CE0088
:102D900020911107309112072F5F3F4F2F73307032
:102DA00080911307909114072817390759F0E09183
:102DB0001107F0911207EF52F94F40833093120739
:102DC00020931107FF91EF919F918F914F913F9128
:102DD0002F910F900BBE0F900FBE0F901F90189564
:102DE00008951F920F920FB60F920BB60F921124F7
:102DF0002F933F934F938F939F93EF93FF93409124
:102E0000D6002091990730919A072F5F3F4F2F737B
:102E1000307080919B0790919C072817390759F0D3
:102E2000E0919907F0919A07E75AF84F4083309361
:102E30009A0720939907FF91EF919F918F914F915E
:102E40003F912F910F900BBE0F900FBE0F901F90D0
:102E5000189508951F920F920FB60F920BB60F920E
:102E600011242F933F934F938F939F93EF93FF934F
:102E70004091360120912108309122082F5F3F4F69
:102E80002F733070809123089091240828173907F8
:102E900059F0E0912108F0912208EF51F84F40835A
:102EA0003093220820932108FF91EF919F918F91F9
:102EB0004F913F912F910F900BBE0F900FBE0F902F
:102EC0001F901895E0917508F0917608E05CFF4F2F
:102ED0008191919120813181821B930B8F7390702E
:102EE000892B11F00E947E16E0919408F0919508CC
:102EF000E05CFF4F8191919120813181821B930B86
:102F00008F739070892B11F00E94B716E091B3086F
:102F1000F091B408E05CFF4F819191912081318163
:102F2000821B930B8F739070892B11F00E94F01607
:102F3000E091D208F091D308E05CFF4F819191912C
:102F400020813181821B930B8F739070892B11F03C
:102F50000E94291708951F920F920FB60F920BB679
:102F60000F9211242F933F938F939F93EF93FF938F
:102F70002091CD063091CE068091CF069091D0065B
:102F80002817390731F48091C1008F7D8093C100EB
:102F900014C0E091CF06F091D006E357F94F20819D
:102FA0008091CF069091D00601968F739070909388
:102FB000D0068093CF062093C600FF91EF919F919A
:102FC0008F913F912F910F900BBE0F900FBE0F90DE
:102FD0001F9018951F920F920FB60F920BB60F927B
:102FE00011242F933F938F939F93EF93FF932091FF
:102FF0005507309156078091570790915807281729
:10300000390731F48091C9008F7D8093C90014C0C5
:10301000E0915707F0915807EB5EF84F20818091BF
:1030200057079091580701968F73907090935807A7
:10303000809357072093CE00FF91EF919F918F913E
:103040003F912F910F900BBE0F900FBE0F901F90CE
:1030500018951F920F920FB60F920BB60F92112474
:103060002F933F938F939F93EF93FF932091DD07CF
:103070003091DE078091DF079091E007281739072C
:1030800031F48091D1008F7D8093D10014C0E09104
:10309000DF07F091E007E356F84F20818091DF07CA
:1030A0009091E00701968F7390709093E007809362
:1030B000DF072093D600FF91EF919F918F913F9171
:1030C0002F910F900BBE0F900FBE0F901F90189571
:1030D0001F920F920FB60F920BB60F9211242F93DF
:1030E0003F938F939F93EF93FF93209165083091C7
:1030F000660880916708909168082817390731F4AD
:10310000809131018F7D8093310114C0E091670877
:10311000F0916808EB5DF74F2081809167089091EE
:10312000680801968F739070909368088093670881
:1031300020933601FF91EF919F918F913F912F91B5
:103140000F900BBE0F900FBE0F901F901895AF926F
:10315000BF92DF92EF92FF920F931F93CF93DF9373
:10316000EC017A018B01DD24403081EE580780E0CC
:10317000680780E0780711F0DD24D39491E0A92E50
:10318000B12CEC89FD89DD2069F0C5010E8C02C0EF
:10319000880F991F0A94E2F7808360E079E08DE35D
:1031A00090E005C0108260E874E88EE190E0A8012C
:1031B00097010E946D3D215030404040504056954F
:1031C00047953795279580E12030380720F0DD209E
:1031D00011F0DD24D6CFE889F9893083EA89FB89AB
:1031E0002083EE89FF89408121E030E0C9010A8C0B
:1031F00002C0880F991F0A94E2F7482B4083EE899A
:10320000FF894081C9010B8C02C0880F991F0A9465
:10321000E2F7482B4083EE89FF894081C9010C8C7D
:1032200002C0880F991F0A94E2F7482B4083EE8969
:10323000FF8980810D8C02C0220F331F0A94E2F7B0
:10324000209528232083DF91CF911F910F91FF902C
:10325000EF90DF90BF90AF900895DC011C96ED9148
:10326000FC911D97E05CFF4F21913191808191810C
:10327000281B390B2F733070C9010895DC011C968F
:10328000ED91FC911D97E05CFF4F20813181E0546E
:10329000F040DF01AE5BBF4F8D919C9111972817D5
:1032A000390719F42FEF3FEF07C08D919C91E80F7C
:1032B000F91F8081282F30E0C9010895DC011C9698
:1032C000ED91FC911D97E05CFF4F20813181E0542E
:1032D000F040DF01AE5BBF4F8D919C911197281795
:1032E000390719F42FEF3FEF10C08D919C91119782
:1032F000E80FF91F20818D919C91119701968F7392
:10330000907011969C938E9330E0C9010895FC0152
:1033100086859785DC01A05CBF4FFC01EE5BFF4F0B
:103320002D913C9111978081918128173907C1F720
:103330000895CF93DF93EC01EE85FF85E05CFF4FAE
:1033400020813181E054F0402F5F3F4F2F73307068
:10335000DF01AE5BBF4F8D919C9111972817390704
:10336000D1F3E05CFF4F80819181E054F040E80FA1
:10337000F91F6083EE85FF85E05CFF4F318320837A
:10338000EE89FF89208181E090E00D8C02C0880FDA
:10339000991F0A94E2F7282B208381E090E0DF91C7
:1033A000CF9108951F9310926C0810926B0828EE2D
:1033B00033E040E050E020936D0830936E08409376
:1033C0006F085093700865E975E070936A08609320
:1033D000690889E496E090937608809375088DE8F3
:1033E00096E0909378088093770885EC90E090932E
:1033F0007A088093790884EC90E090937C0880931D
:103400007B0880EC90E090937E0880937D0881ECAF
:1034100090E09093800880937F0886EC90E09093F2
:1034200082088093810814E010938308B3E0B0937E
:103430008408A7E0A0938508F5E0F0938608E1E012
:10344000E093870810928B0810928A0820938C08CA
:1034500030938D0840938E0850938F08709389089D
:103460006093880881ED96E0909395088093940886
:1034700085E197E090939708809396088DEC90E013
:1034800090939908809398088CEC90E090939B0817
:1034900080939A0888EC90E090939D0880939C0814
:1034A00089EC90E090939F0880939E088EEC90E0CA
:1034B0009093A1088093A0081093A208B093A3084A
:1034C000A093A408F093A508E093A6081092AA0878
:1034D0001092A9082093AB083093AC084093AD0834
:1034E0005093AE087093A8086093A70889E597E009
:1034F0009093B4088093B3088DE997E09093B60851
:103500008093B50885ED90E09093B8088093B70854
:1035100084ED90E09093BA088093B90880ED90E034
:103520009093BC088093BB0881ED90E09093BE0817
:103530008093BD0886ED90E09093C0088093BF080B
:103540001093C108B093C208A093C308F093C408B5
:10355000E093C5081092C9081092C8082093CA08C1
:103560003093CB084093CC085093CD087093C70894
:103570006093C60881EE97E09093D3088093D208B9
:1035800085E298E09093D5088093D40885E391E094
:103590009093D7088093D60884E391E09093D9085C
:1035A0008093D80880E391E09093DB088093DA0859
:1035B00081E391E09093DD088093DC0886E391E05D
:1035C0009093DF088093DE081093E008B093E10841
:1035D000A093E208F093E308E093E4081F910895B4
:1035E000CF93DF93C0E0D0E006C0C60FD71F615075
:1035F0007040804090406115710581059105A9F7E3
:1036000089E698E060EA74E00E945916CE01DF91E5
:10361000CF910895CF93DF93EB01892B39F589E69C
:1036200098E061EA74E00E945C16F8948DE061E035
:103630000E948D1389E698E0BE014AE050E00E94A6
:103640003A168DE060E00E94401460E472E48FE07E
:1036500090E00E94F01A8DE061E00E94401460E466
:1036600072E48FE090E00E94F01AE4CFDF91CF91F6
:103670000895FC017583648371876087578346834F
:1036800053874287158A158614861786168621E089
:10369000248B8FEF9FEF938B828B918B808B268B6C
:1036A00008952F923F924F925F926F927F928F92E6
:1036B0009F92AF92BF92CF92DF92EF92FF920F93C1
:1036C0001F93DF93CF93CDB7DEB72E970FB6F89445
:1036D000DEBF0FBECDBF9E878D871B015E834D83EE
:1036E000A701260171E0C72ED12CC21AD30AC90145
:1036F000880F991F66277727681B790B7A83698360
:103700006D807E8008946108710883E0882E912C7A
:103710008E0C9F1C790181E090E09C838B83AA240E
:10372000BB2410E0D801A170B070B887AF83FA0154
:103730003196FA87E987B801627070707C876B8771
:1037400077C0D7FC0AC00894E108F10889819A8102
:1037500002969A838983C80ED91E0894A11CB11CB5
:10376000AB81BC811296BC83AB83EF81F885EF2BD4
:1037700041F1AD85BE85ED91FC911197B501620DCA
:10378000731D4D815E814E195F099701220F331F12
:1037900089859A85280F391F0284F385E02DCD0194
:1037A00082011995AD85BE85ED91FC911197B70108
:1037B000620D731D0284F385E02DCD01A3019401F8
:1037C0001995EB85FC85EF2B41F1AD85BE85ED911B
:1037D000FC911197B1016A197B094D815E814E19E7
:1037E0005F099701220F331F89859A85280F391F9A
:1037F0000284F385E02DCD0182011995AD85BE854A
:10380000ED91FC911197B1016E197F090284F38546
:10381000E02DCD01A30194011995EB81FC81CE0E21
:10382000DF1E08946108710862E070E0860E971E42
:10383000AE14BF040CF485CF2E960FB6F894DEBFFD
:103840000FBECDBFCF91DF911F910F91FF90EF90F1
:10385000DF90CF90BF90AF909F908F907F906F90B0
:103860005F904F903F902F9008956F927F928F922C
:103870009F92AF92BF92CF92DF92EF92FF920F93FF
:103880001F937C014B013A0159016801DC01ED9164
:10389000FC91421B530B220F331F2F5F3F4F0284BB
:1038A000F385E02D1995C701B401A301950103E04B
:1038B000EE24FF240E94511B1F910F91FF90EF9067
:1038C000DF90CF90BF90AF909F908F907F906F9040
:1038D00008952F923F924F925F926F927F928F92B4
:1038E0009F92AF92BF92CF92DF92EF92FF920F938F
:1038F0001F93DF93CF9300D00F92CDB7DEB73C017B
:103900007C836B836A015901FA82E9822224332481
:103910009801241B350B37FF03C0309521953F4F8D
:10392000C5014B815C81841B950B97FF03C090956B
:1039300081959F4F821793075CF481E0282E312CEC
:10394000C601CB80DC809C838B83C80185015C0130
:103950008B819C81A816B90644F4C501AB80BC805C
:103960009C838B83C80186016C012501AB81BC81DE
:103970004A1A5B0A7801EC18FD08F7FE04C0F094BF
:10398000E194F108F394C016D10624F088248A94B7
:10399000982C03C0B1E08B2E912CC20162E070E044
:1039A0000E945A3D8B0125C0D301ED91FC91211459
:1039B000310441F00480F581E02DC301B6014B8153
:1039C0005C8107C00480F581E02DC3016B817C819F
:1039D000A60129813A8119950E191F0917FF04C004
:1039E000C80CD91C040D151DEB81FC813196FC839C
:1039F000EB834B815C81A416B506B4F60F900F9053
:103A00000F900F90CF91DF911F910F91FF90EF904A
:103A1000DF90CF90BF90AF909F908F907F906F90EE
:103A20005F904F903F902F9008954F925F926F92CA
:103A30007F928F929F92AF92BF92CF92DF92EF923E
:103A4000FF920F931F936C015B014A01390128011A
:103A5000DC01ED91FC910484F585E02D8701199539
:103A6000D601ED91FC91A40141505040440D551DEB
:103A70000484F585E02DC601B50193011995D601A1
:103A8000ED91FC910284F385E02DC601B501A401FE
:103A900092011995D601ED91FC910894A108B10805
:103AA000A60CB71C0284F385E02DC601B501A40164
:103AB000920119951F910F91FF90EF90DF90CF9099
:103AC000BF90AF909F908F907F906F905F904F903E
:103AD00008952F923F924F925F926F927F928F92B2
:103AE0009F92AF92BF92CF92DF92EF92FF920F938D
:103AF0001F93DF93CF93CDB7DEB72F970FB6F89410
:103B0000DEBF0FBECDBF5C015E834D8318870F8380
:103B1000FA86E986CB86DC0118968D919C911997DF
:103B2000681779070CF0A4C01A968D919C911B9789
:103B3000481759070CF09CC0EC2DF0E0FF87EE878A
:103B4000CF01880F991F880F991F8E0F9F1F860F17
:103B5000971F181619060CF08BC0CF01A3E0880F31
:103B6000991FAA95E1F7840F951F181619060CF0F6
:103B70007FC085E0289FA00111245A8349832B012F
:103B80001B011C825C81553011F480E005C0E98185
:103B9000FA81EC5FFD4F84912C863D866D807E809E
:103BA00043011B82C82EDD2480FF1CC0D501ED918E
:103BB000FC91BB85B13049F40480F581E02DC5014D
:103BC000B201A3012F81388522C00088F189E02D40
:103BD000C5016C857D85A4012E853F858901EF8017
:103BE000F88423C0E985FA852F813885E217F30729
:103BF000E9F0D501ED91FC91BB85B13051F4048021
:103C0000F581E02DC501B201A30129853A851995F9
:103C10000DC00088F189E02DC5016C857D85A4016A
:103C20002E853F858901E984FA841995EB81EF5F40
:103C3000EB832E853F85820E931E0894611C711CB8
:103C4000E83021F0D594C7948C2DACCF3C813F5FF8
:103C50003C834E855F85240E351E0894411C511C03
:103C600089819A8101969A838983363009F08ACFB7
:103C70002F960FB6F894DEBF0FBECDBFCF91DF9168
:103C80001F910F91FF90EF90DF90CF90BF90AF907A
:103C90009F908F907F906F905F904F903F902F906C
:103CA0000895CF92EF92FF920F931F93CF93DF93DC
:103CB000EC01262F6A3061F42C8930E003E0220FFA
:103CC000331F0A95E1F78E859F85820F931F37C0BA
:103CD0006D30C9F16C857D854E855F8508891989B0
:103CE000EA88FB88CC880E94691D2C8986E0289F81
:103CF000B00111248C859D85680F791F7D876C87A5
:103D00008E89882301F1422F50E08AEF9FEF9C01BA
:103D1000429FC001439F900D529F900D1124288512
:103D20003985820F931F861797076CF413E0440FB1
:103D3000551F1A95E1F78E859F85840F951F9F87E4
:103D40008E871D861C8681E090E0DF91CF911F91C8
:103D50000F91FF90EF90CF900895FC0175876487D5
:103D6000578746870895FC01662309F461E0648B58
:103D70000895FC01718B608B738B628B0895FC013D
:103D80001382128285EA95E09183808360A341A328
:103D900022A381E0878B14A213A20895DC01579619
:103DA0008C915797882329F06EBD0DB407FEFDCF87
:103DB000089530E840E050E070E0832F90E08623E3
:103DC00097235896ED91FC91599795962C9195973C
:103DD000892B21F08081822B808304C080812095F3
:103DE000282320835A96ED91FC915B9780819696CB
:103DF0009C919697892B80835A96ED91FC915B97C5
:103E0000908196968C91969780958923808336959C
:103E10004F5F5F4F4830510581F608950F931F9310
:103E20008C01DC015E96ED91FC915F9790819896F4
:103E30008C9198978095892380835C96ED91FC9175
:103E40005D97908197968C91809589238083C80196
:103E50000E94CE1ED8015C96ED91FC915D97808109
:103E600097969C91892B80831F910F9108950F93B2
:103E70001F938C01DC015E96ED91FC915F97808130
:103E800098969C919897892B80835C96ED91FC91F4
:103E90005D97908197968C91809589238083C80146
:103EA0000E94CE1ED8015C96ED91FC915D978081B9
:103EB00097969C91892B80831F910F910895CF92A3
:103EC000DF92EF92FF920F931F937C01162FC42E67
:103ED000D22E6AE20E940E1FC70160E00E94371FC7
:103EE000F70161A5610FC7010E94371FC70160E09C
:103EF0000E94371FF70161A56D0DC7010E94371F92
:103F0000C7016BE20E940E1FC70160E00E94371FCD
:103F1000F70162A56C0DC7010E94371FC70160E061
:103F20000E94371FF70162A5600FC7010E94371F6B
:103F3000C7016CE20E940E1F1F910F91FF90EF903E
:103F4000DF90CF900895EF92FF920F931F93CF933E
:103F5000DF93EC017B01288521500A85015060E048
:103F600040E00E945F1FEE8DFF8D808198A5892B18
:103F70008083EC8DFD8D90818FA180958923808336
:103F80001A850EC0088509C0CE016F2D0E94CE1E75
:103F9000CE016E2D0E94CE1E01500023A9F71150B4
:103FA000112381F7EC8DFD8D80819FA1892B80836A
:103FB000DF91CF911F910F91FF90EF900895FF92A5
:103FC0000F931F938C01F62E672FDC015E96ED9107
:103FD000FC915F97808198969C919897892B80831C
:103FE0005C96ED91FC915D97908197968C91809570
:103FF00089238083C8010E94CE1EC8016F2D0E94B4
:10400000CE1ED8015C96ED91FC915D9780819796CC
:104010009C91892B80831F910F91FF900895FF92AF
:104020000F931F93CF93DF93EC01F22E132F77FDA5
:104030002EC088859985681779074CF557FD27C0EC
:104040008A859B854817590714F5262F2F5F042F63
:104050000F5FCE010E945F1FEE8DFF8D808198A5BE
:10406000892B8083EC8DFD8D90818FA18095892394
:104070008083CE01612F0E94CE1ECE016F2D0E9443
:10408000CE1EEC8DFD8D80819FA1892B8083DF91D9
:10409000CF911F910F91FF900895DF92EF92FF92C1
:1040A0000F931F93CF93DF93EC01FB017901D02E87
:1040B0008885998568177907D4F52A853B85421745
:1040C0005307ACF5C701840F951F281739071CF457
:1040D0007901E41AF50A042F01500E0DCE016E2F5E
:1040E0002E2F0E945F1FEE8DFF8D808198A5892B5A
:1040F0008083EC8DFD8D90818FA1809589238083B5
:1041000008C0CE01612F0E94CE1ECE016D2D0E94EF
:10411000CE1E0894E108F1088FEFE8168FEFF8063D
:1041200081F7EC8DFD8D80819FA1892B8083DF91AC
:10413000CF911F910F91FF90EF90DF900895DF9244
:10414000EF92FF920F931F93CF93DF93EC01FA014D
:104150007901D02E2885398562177307D4F58A85B1
:104160009B8548175907ACF5C701860F971F28177D
:1041700039071CF47901E61AF70A262F21502E0D73
:10418000CE014E2F0E2F0E945F1FEE8DFF8D80817E
:1041900098A5892B8083EC8DFD8D90818FA18095D2
:1041A0008923808308C0CE01612F0E94CE1ECE01DC
:1041B0006D2D0E94CE1E0894E108F1088FEFE816DD
:1041C0008FEFF80681F7EC8DFD8D80819FA1892B03
:1041D0008083DF91CF911F910F91FF90EF90DF903F
:1041E0000895AF92BF92CF92DF92EF92FF920F931A
:1041F0001F93CF93DF936C015901E801DC011896FE
:104200002D913C911997621773070CF057C01A96BD
:10421000ED91FC911B974E175F070CF04FC0C50145
:10422000860F971F281739071CF45901A61AB70AD9
:10423000CE01840F951FE817F9071CF4EF01C41B8A
:10424000D50B262F21502A0D042F01500C0FC6012B
:104250000E945F1FD6015E96ED91FC915F97808171
:1042600098969C919897892B80835C96ED91FC9110
:104270005D97908197968C918095892380838E019C
:104280000EC0C6016F2D0E94CE1EC6016E2D0E946B
:10429000CE1E21971C161D06A4F3015010401016C7
:1042A000110614F4E501F6CFD6015C96ED91FC9170
:1042B0005D97808197969C91892B8083DF91CF9128
:1042C0001F910F91FF90EF90DF90CF90BF90AF9034
:1042D00008951F93CF93DF93EC01162F66E30E949E
:1042E0000E1F13701D8B113051F0113028F0123059
:1042F00049F01330F1F411C0CE0168EC05C0CE01D5
:1043000068EA0DC0CE0168E00E94371F80E890E0A7
:104310009987888780EA90E00AC0CE0168E60E940B
:10432000371F80EA90E09987888780E890E09B8734
:104330008A87DF91CF911F910895662311F460E27F
:1043400001C061E20E940E1F0895AF92BF92CF920A
:10435000DF92EF92FF920F931F93CF93DF935C0155
:10436000FB01EB012196D49031C08E010F5F1F4FEE
:10437000FE016491C5010E940E1F78010894E11CA2
:10438000F11CF801C4900C2D0F77E701102F08C025
:10439000FE012196E491C5016E2F0E94371F115036
:1043A0001123B1F7E701C00FD11DC7FE0EC0FE01FA
:1043B0008491682F70E06F3F710511F464EF71E034
:1043C000219680E090E00E94CE10DA94DD2069F61C
:1043D000DF91CF911F910F91FF90EF90DF90CF90E1
:1043E000BF90AF9008950F931F93CF93DF93EC018D
:1043F0008B0160E870E040EA50E00E94391B1AA689
:1044000019A689A161E00E948D1388A161E00E9434
:104410008D13E8A12E2F30E0F901EE5CFE4FE49100
:10442000F0E0EE0FFF1FE250FF4F859194919D8FBA
:104430008C8F28583E4FF90184918FA3E9A12E2F2C
:1044400030E0F901EE5CFE4FE491F0E0EE0FFF1F6B
:10445000E250FF4F859194919F8F8E8F28583E4F49
:10446000F901849188A78F89882361F00E944436DE
:1044700080E00E94333681E00E94253680E00E9471
:104480002E363DC08CA161E00E948D138BA161E0AE
:104490000E948D13ECA18E2F90E0FC01EE5CFE4F8C
:1044A000E491F0E0EE0FFF1FE250FF4FA591B491B1
:1044B000BB8FAA8F88589E4FFC0144914EA3EBA15D
:1044C0002E2F30E0F901EE5CFE4FE491F0E0EE0FAC
:1044D000FF1FE250FF4F85919491998F888F285844
:1044E0003E4FF90184918DA38C91409548234C93C4
:1044F000E88DF98D90818DA1809589238083EC8D45
:10450000FD8D90818FA18095892380838AA1882346
:1045100009F161E00E948D138AA161E00E944014BC
:1045200064EF71E080E090E00E94CE108AA160E02C
:104530000E94401464EF71E080E090E00E94CE1091
:104540008AA161E00E94401464EF71E080E090E095
:104550000E94CE100115110521F0CE01B8010E9474
:10456000A521DF91CF911F910F9108951F93CF93B4
:10457000DF93EC01162F6FEF76E00E94F3211123F9
:1045800051F4CE016AE377E00E94A52182E089A779
:1045900081E08AA705C0CE0167E477E00E94A521EB
:1045A000CE0164E577E00E94A521DF91CF911F91B4
:1045B000089582E090E0A0E0B0E08093E508909359
:1045C000E608A093E708B093E8081092FC08109260
:1045D0000609109205098DEC95E0909304098093EB
:1045E00003091092080910922509109226091092C9
:1045F000290910922B0908952F923F924F925F92B2
:104600006F927F928F929F92AF92BF92CF92DF92E2
:10461000EF92FF920F931F93DF93CF93CDB7DEB747
:10462000C754D0400FB6F894DEBF0FBECDBF582E92
:10463000492EFB013A01190180A191A1998B888B28
:104640002DEC35E03F872E8782A18A8B83A18B8B4F
:1046500084A195A1A6A1B7A18C8B9D8BAE8BBF8B9E
:1046600080A591A5A2A5B3A5888F998FAA8FBB8F8E
:1046700084A595A5A6A5B7A58C8F9D8FAE8FBF8F5E
:1046800080A988A381A992A9A3A9B4A989A39AA35F
:10469000ABA3BCA385A996A9A7A9B0AD8DA39EA3E2
:1046A000AFA3B8A781AD92AD9AA789A71EA61DA6F4
:1046B0003CA72BA718AA7A018E01025F1F4F3BE28D
:1046C000A32EB12CAC0EBD1E4E010894811C911C72
:1046D00035C0D7018C918F3221F40894E11CF11C74
:1046E0002DC0422F4E194D3008F04CE0C42EDD2471
:1046F000C401B701A6010E94383AF401EC0DFD1D7A
:104700001082C5010E940428C501B801A40121E05E
:104710000E944C2D882351F4E52DF42D1382128232
:104720008DEC95E091838083158266C0EC0CFD1CB6
:10473000C8010E940428C50158018C01C7016FE21D
:1047400070E00E942D3A9C01009719F6E618F708D0
:10475000F101F182E082E52DF42DD80112968D91C0
:104760009C911397938382838DEC95E09183808352
:1047700014968C911497848315968C911597858344
:1047800016962D913D914D915C9119972683378313
:10479000408751871A962D913D914D915C911D97BF
:1047A00022873387448755871E962D913D914D91E1
:1047B0005C91519726873787408B518B52968C910D
:1047C0005297828B53962D913D914D915C915697C6
:1047D000238B348B458B568B57962D913D914D9164
:1047E0005C915A97278B308F418F528F5B968D91BA
:1047F0009C915C97948F838F852D942DC95BDF4F9F
:104800000FB6F894DEBF0FBECDBFCF91DF911F91E1
:104810000F91FF90EF90DF90CF90BF90AF909F905F
:104820008F907F906F905F904F903F902F90089562
:104830009F92AF92BF92CF92DF92EF92FF920F932F
:104840001F93DF93CF93CDB7DEB7C657D0400FB6D7
:10485000F894DEBF0FBECDBFC82E992E8A01D22E8E
:1048600043E0A42EB12CAC0EBD1EC501A8019E01D3
:104870002F5F3F4F0E94FC22E980FA80E00EF11E7C
:10488000F70180814DEC55E02885882309F03FC071
:104890008D819E819BA38AA359A348A38F818CA35A
:1048A0002DA389859A85AB85BC858EA39FA3A8A7D8
:1048B000B9A78D859E85AF85B8898AA79BA7ACA728
:1048C000BDA789899A89AB89BC898EA79FA7A8AB08
:1048D000B9AB8D898AAB8E899F89A88DB98D8BAB39
:1048E0009CABADABBEAB8A8D9B8DAC8DBD8D8FABC4
:1048F00098AFA9AFBAAF8E8D9F8D9CAF8BAF8C2D2B
:10490000992DBE01605E7F4F43EB54E09FC0FE01D6
:10491000FF96118210825EAF4DAFFE01EE5BFF4F3E
:1049200010822223A9F02250CE01CD96223048F4E5
:1049300063E079E0A7012D2D0E944C2D882381F49E
:1049400007C0B501A7012D2D0E944C2D882329F405
:104950008C2D992D0E9470257BC0C5010E940428D2
:10496000F6E0DF2259F0FE01E05BFF4F408151810C
:1049700062817381CE01CD960E94F4269E01265A53
:104980003F4FFE01FF9680819181F90193838283DD
:104990008DEC95E091838083FE01EF5BFF4F80817A
:1049A000F9018483FE01EE5BFF4F8081F90185836D
:1049B000FE01ED5BFF4F80819181A281B381F901FE
:1049C00086839783A087B187FE01E95BFF4F8081D3
:1049D0009181A281B381F90182879387A487B587EA
:1049E000FE01E55BFF4F80819181A281B381F901D6
:1049F00086879787A08BB18BFE01E15BFF4F80819B
:104A0000F901828BFE01E05BFF4F80819181A281E1
:104A1000B381F901838B948BA58BB68BFE01EC5A85
:104A2000FF4F80819181A281B381F901878B908FA3
:104A3000A18FB28FFE01E85AFF4F80819181F90169
:104A4000948F838F8C2D992DB901A7010E947A260E
:104A50008C2D992DCA58DF4F0FB6F894DEBF0FBECC
:104A6000CDBFCF91DF911F910F91FF90EF90DF901D
:104A7000CF90BF90AF909F900895EF92FF920F93C9
:104A80001F93CF93DF93EC01462F8C01055C1F4FE2
:104A9000C80161E00E948D308823D1F0FC2EED2EFC
:104AA000CE01B80141E00E94FA31882339F4CE01E9
:104AB000B80140E00E94FA31882351F0CE014E96B1
:104AC0006F2D7E2D0E943A2A882319F081E001C0C3
:104AD00080E0DF91CF911F910F91FF90EF900895AB
:104AE000FC011382128288EE93E0A0E0B0E08483A0
:104AF0009583A683B7838DEB95E091838083128E97
:104B0000118E14860895FC018DEB95E091838083CE
:104B10000895DF93CF930F92CDB7DEB7FC01698381
:104B2000A081B18112962D913C911397BE016F5FC8
:104B30007F4F41E050E0F90119950F90CF91DF913F
:104B40000895DC015996ED91FC915A97309719F42C
:104B500020E030E018C02389348945895689828550
:104B60009385A485B585281B390B4A0B5B0B203038
:104B7000B0E83B07B0E04B07B0E05B0720F02FEF59
:104B80003FE740E050E0C9010895DC015996ED91FE
:104B9000FC915A97309711F480E008958581811136
:104BA00081E00895CF93DF93EC01898D9A8D009772
:104BB00041F00E940428898D9A8D0E944E381A8EE9
:104BC000198EDF91CF910895FC01818D928D009710
:104BD00011F480E008950E94F4260895FC01818D6F
:104BE000928D009711F00E94BA270895FC01818DE3
:104BF000928D009719F420E030E003C00E94DB287A
:104C00009C01C9010895DF93CF930F92CDB7DEB712
:104C1000FC01818D928D009749F0BE016F5F7F4F3F
:104C200041E050E00E94DB28019719F02FEF3FEFA1
:104C300003C08981282F30E0C9010F90CF91DF9107
:104C40000895EF92FF920F931F93DF93CF930F92EC
:104C5000CDB7DEB77C01DC0159968D919C915A97B6
:104C6000009719F400E010E01FC0BE016F5F7F4F96
:104C700041E050E00E94DB28019719F00FEF1FEF91
:104C800013C08981082F10E0D7015996ED91FC914E
:104C90005A974285538564857585415050406040E0
:104CA0007040CF010E94F426C8010F90CF91DF9190
:104CB0001F910F91FF90EF900895CF93DF93EC0138
:104CC000E98DFA8D309761F013821282CF010E9434
:104CD000202B9C01E98DFA8D82819381892B31F003
:104CE00081E090E09B838A8320E030E0C901DF917E
:104CF000CF910895EF92FF920F931F93CF93DF937D
:104D0000EC01F62EE72E8A011B821A8288EE93E0D0
:104D1000A0E0B0E08C839D83AE83BF838DEB95E0F4
:104D2000998388838DE190E00E94B1379A8F898FB3
:104D3000009791F0DC018F2D9E2D9C01F9018DE1F2
:104D400001900D928150E1F7CE010C96B8014CE034
:104D500050E00E94383A188EDF91CF911F910F9149
:104D6000FF90EF900895CF93DF93EC01DB0180E09B
:104D700090E020E2FD01E80FF91F208301968B30BF
:104D80009105C1F757E040E021C02E3219F086EEC0
:104D900097E007C05A3019F15AE048E017C03217BF
:104DA000F1F0FC01019634913323C9F75417B8F0A0
:104DB0002132A8F02F3798F4822F81568A3108F4D7
:104DC0002052FD01E40FF11D20834F5F2991222322
:104DD000E1F690E08C91803219F091E001C090E012
:104DE000892FDF91CF9108956F927F928F929F923A
:104DF000AF92BF92CF92DF92EF92FF920F931F93E9
:104E0000CF93DF93EC017A018B012D81222309F4EA
:104E100080C08B899C89AD89BE8984179507A607B8
:104E2000B70708F476C085C0E114F1040105110547
:104E300049F41E821F82188619861A861B861C86D4
:104E40001D8665C02A853B854C855D85EB8DFC8D77
:104E5000858590E00996215030404040504039010E
:104E60004A01082E04C096948794779467940A9414
:104E7000D2F72F5F3F4F4F4F5F4F0894E108F10883
:104E8000010911095701680104C0D694C794B79469
:104E9000A7948A95D2F70894E11CF11C011D111DFD
:104EA000A614B704C804D90428F02115310541051A
:104EB000510549F48F89988DA98DBA8D8E839F8372
:104EC000A887B98716C0A618B708C808D90811C09E
:104ED0004E815F81688579858B8D9C8D94010E94C0
:104EE000DB330894A108B108C108D108882331F444
:104EF00010C086E0882E912C8C0E9D1EA114B1044A
:104F0000C104D10429F7EA86FB860C871D8781E05E
:104F100001C080E0DF91CF911F910F91FF90EF9042
:104F2000DF90CF90BF90AF909F908F907F906F90C9
:104F30000895223009F078CFE6CFCF93DF93EC01CC
:104F4000462F6E857F85888999890E94BF31882385
:104F500019F420E030E00AC08A89282F30E095E07B
:104F6000220F331F9A95E1F7205D364FC901DF917B
:104F7000CF9108950F931F93CF93DF938C01FC0182
:104F800085818823D9F1848187FF35C0C80161E01C
:104F90000E949D27EC01009789F1F80185818230FC
:104FA00040F483899489A589B6898C8F9D8FAE8FB3
:104FB000BF8FF8018789908D9B8F8A8F8789908D0D
:104FC000A18DB28DCD01AA27BB279D8B8C8BE09143
:104FD0002E09F0912F09309751F0BE016A5E7F4F84
:104FE000CE0148961995888D998D9B8B8A8BF801F7
:104FF00084818F7784830E94603101C080E0DF91DB
:10500000CF911F910F910895CF93DF93EC010E94F0
:10501000BA27882311F01D8281E0DF91CF91089596
:105020006F927F928F929F92AF92BF92CF92DF92B8
:10503000EF92FF920F931F93DF93CF9300D00F92C5
:10504000CDB7DEB77C015A016B01DC0115968C915E
:105050001597813009F08FC014968C9181FF8BC019
:105060009EC00097A105B10511F481E085C0F7014C
:105070006284738484849584C701B601A5010E946B
:10508000F426882309F477C0D7015B968D919C9113
:105090005C97A114B104C104D10489F457964D91D1
:1050A0005D916D917C915A970E944E34882309F44A
:1050B00062C0F701178A108E118E128E3DC0D70183
:1050C00016964D915D916D917C9119979E012F5F80
:1050D0003F4F0E94DB33882309F44DC0D7015B9614
:1050E000ED91FC915C9749815A816B817C81878924
:1050F000803129F088EF9FEFAFEFBFE004C088EF69
:105100009FEFA0E0B0E0481759076A077B07A0F4BB
:10511000CF010E944E34882371F1F70146815781F7
:1051200060857185838D948D0FEF1FEF2FEF3FE02A
:105130000E943F338823F9F0D7015396AD92BD9278
:10514000CD92DC92569714968C91149780681496A1
:105150008C93C7010E94BA27882369F0B601A50184
:105160006A147B048C049D0410F4B401A301C701EC
:105170000E94F42601C080E00F900F900F900F90D6
:10518000CF91DF911F910F91FF90EF90DF90CF9023
:10519000BF90AF909F908F907F906F900895F70190
:1051A00083899489A589B68984179507A607B707C7
:1051B00008F057CFE0CF2F923F924F925F926F92BD
:1051C0007F928F929F92AF92BF92CF92DF92EF9297
:1051D000FF920F931F93CF93DF93EC012A018D81F0
:1051E000882309F4C6C08C8180FFC3C0D8C02501C4
:1051F0004E185F084B0176E0272E312C2C0E3D1EF9
:105200003201B1C02A853B854C855D856FEFA62EA6
:1052100061E0B62EA222B3228D8179018A0199E044
:1052200016950795F794E7949A95D1F7EB8DFC8D39
:10523000823049F4428D538D648D758D4E0D5F1D06
:10524000601F711F3FC0D480DA94DE20A114B10426
:10525000D9F4DD20C9F4211531054105510549F482
:105260008F89988DA98DBA8D8E839F83A887B987E2
:105270000BC04E815F8168857985CF0191010E94C5
:10528000DB33882309F475C0EB8DFC8D4E815F8183
:10529000688579854250504060407040058404C064
:1052A000440F551F661F771F0A94D2F7868597858E
:1052B000A089B189480F591F6A1F7B1F4D0D511DD1
:1052C000611D711D80E092E08A199B0963018615BA
:1052D000970508F46C018C8186FD06C080E0C81635
:1052E00082E0D80609F073C08091890590918A0503
:1052F000A0918B05B0918C05481759076A077B0769
:1053000009F465C08091300B9091310B95018601B5
:1053100074010E94E02F882361F18C0C9D1C12C047
:105320009501205D364FA9014C0D5D1DD401F90199
:1053300002C081918D93E417F507D9F7E21BF30BB7
:105340008E0E9F1E960140E050E08A859B85AC85BD
:10535000BD85820F931FA41FB51F8A879B87AC87CB
:10536000BD876C187D086114710409F04BCFA20150
:1053700002C04FEF5FEFCA01DF91CF911F910F91F4
:10538000FF90EF90DF90CF90BF90AF909F908F9065
:105390007F906F905F904F903F902F900895AB88D3
:1053A000BC88CD88DE88EA84FB840C851D859A0143
:1053B00040E050E0D601C5018E199F09A00BB10B4A
:1053C00082179307A407B50708F411CF13CFCB01B9
:1053D000BA0140E00E94BF31882309F0A1CFC9CFB4
:1053E000CF92DF92EF92FF920F931F93DF93CF93B1
:1053F0000F92CDB7DEB76C01FC018581823070F071
:10540000E284F38404851585C601BE016F5F7F4F7A
:1054100041E050E00E94DB28019769F020E030E095
:10542000C9010F90CF91DF911F910F91FF90EF90E5
:10543000DF90CF900895F60182859385A485B58588
:105440004F96A11DB11D82879387A487B587F5E08C
:1054500016950795F794E794FA95D1F78E2D8F70EE
:10546000282F30E0E5E0220F331FEA95E1F7205DB9
:10547000364FD6CF0F931F93CF93DF93EC018B0161
:105480008D81882309F041C0FB0187898031B1F407
:1054900082E08D831F8A188E198E1A8E808D918DD1
:1054A000A0E0B0E045E0880F991FAA1FBB1F4A95F6
:1054B000D1F78B8B9C8BAD8BBE8B15C0803229F5C1
:1054C00083E08D83FB01428D538D648D758D4F8BF1
:1054D000588F698F7A8F9E012D5E3F4FC8010E94C1
:1054E000A734882391F01C8F0B8F81E08C831E8260
:1054F0001F82188619861A861B861C861D861E86A4
:105500001F86188A198A1A8A01C080E0DF91CF911C
:105510001F910F9108951F93CF93DF93EC01142FE8
:10552000E62FF0E075E0EE0FFF1F7A95E1F7E05D02
:10553000F64F8385817121F0842F827409F054C065
:105540006A8B8091890590918A05A0918B05B09115
:105550008C058E879F87A88BB98B84899589A0E05D
:10556000B0E0BC0155274427828D938DA0E0B0E0C8
:10557000482B592B6A2B7B2B4F8B588F698F7A8F37
:10558000838590E088719070009751F4848D958D9B
:10559000A68DB78D8B8B9C8BAD8BBE8B81E00CC0A9
:1055A000409711F59E012D5E3F4F8B8D9C8D0E9483
:1055B000A7348823C9F084E08D83812F8F708C837A
:1055C0001E821F82188619861A861B861C861D86D7
:1055D00016FD02C081E009C0CE0140E050E060E06D
:1055E00070E00E94102801C080E0DF91CF911F91F0
:1055F0000895CF93DF93EC019C012A5F3F4F8B8D81
:105600009C8D41E050E060E070E00E9416358823F8
:10561000A1F08F89988DA98DBA8D0097A105B1054C
:1056200059F48E819F81A885B9858F8B988FA98F1A
:10563000BA8F8C8180688C8381E0DF91CF9108954F
:105640002F923F924F925F927F928F929F92AF9252
:10565000BF92CF92DF92EF92FF920F931F93DF934F
:10566000CF9300D000D0CDB7DEB76C01162F072F37
:105670005E834D83DC0115968C911597813009F07E
:1056800070C114968C9181FF6CC18EC1F601438963
:1056900054896589768982859385A485B585841723
:1056A0009507A607B70731F0C6010E94F4268823A4
:1056B00009F457C1812F902F9C0129012D803E8034
:1056C00017C1D6015B96ED91FC915C97DA01C90197
:1056D00019E0B695A795979587951A95D1F7748097
:1056E0007A9478227FEF872E71E0972E8222932280
:1056F000772009F04EC08114910409F04AC0D60108
:1057000016964D915D916D917C91199741155105BA
:105710006105710581F457968D919D910D90BC9115
:10572000A02D0097A105B10549F1F6018683978365
:10573000A087B1872EC0CF019E012F5F3F4F0E94EF
:10574000DB33882309F414C129813A814B815C81C0
:10575000D6015B96ED91FC915C978789803129F0A9
:1057600088EF9FEFAFEFBFE004C088EF9FEFA0E0AE
:10577000B0E0281739074A075B0730F0C6010E94DE
:10578000F92A882331F4EDC0F60126833783408758
:10579000518780E092E0881999095101821593059B
:1057A00008F45C01D6015B96ED91FC915C9716962E
:1057B000ED90FD900D911C9119978EEF9FEFAFEF3B
:1057C000BFEFE80EF91E0A1F1B1F058404C0EE0C74
:1057D000FF1C001F111F0A94D2F786859785A089A8
:1057E000B189E80EF91E0A1F1B1FE70CF11C011DF1
:1057F000111D90E0A91692E0B90651F58091890536
:1058000090918A05A0918B05B0918C058E159F050E
:10581000A007B10761F48FEF9FEFAFEFBFEF809369
:10582000890590938A05A0938B05B0938C05809190
:10583000300B9091310BB801A70192010E94832F88
:10584000882309F48EC0A0E0B2E04A0E5B1E3EC081
:105850008114910409F5F601228533854485558527
:1058600083899489A589B689281739074A075B0770
:1058700098F00E946031882309F473C0E092890592
:10588000F0928A0500938B0510938C058091320B62
:1058900081608093320B08C0C801B70141E00E94CB
:1058A000BF31882309F45DC09401205D364FA90102
:1058B0004A0D5B1DD201F90102C08D918193E4175D
:1058C000F507D9F7E21BF30B4E0E5F1E2A183B08B3
:1058D000950140E050E0F60182859385A485B58569
:1058E000820F931FA41FB51F82879387A487B58754
:1058F000D6011A962D913D914D915C911D972114E1
:10590000310409F0DECE53968D919D910D90BC919E
:10591000A02D82179307A407B50748F4F601238B3F
:10592000348B458B568B84818068848311C0809131
:105930002E0990912F09892B59F08D819E81892BF9
:1059400039F0D60114968C911497806814968C9334
:10595000F601848183FF0EC0C6010E94BA27882306
:1059600049F481E090E0D60113969C938E931297B0
:105970001E821D828D819E8126960FB6F894DEBF11
:105980000FBECDBFCF91DF911F910F91FF90EF9090
:10599000DF90CF90BF90AF909F908F907F905F905F
:1059A0004F903F902F90089582FD70CE83CEDF936D
:1059B000CF930F92CDB7DEB76983BE016F5F7F4F84
:1059C00041E050E00E94202B0F90CF91DF9108958D
:1059D000DF92EF92FF920F931F93CF93DF93EC012F
:1059E0000E94F92A882309F44EC0EB8DFC8DEE80CD
:1059F000FF80088519858EEF9FEFAFEFBFEFE80EB0
:105A0000F91E0A1F1B1F058404C0EE0CFF1C001F9B
:105A1000111F0A94D2F786859785A089B189E80E6F
:105A2000F91E0A1F1B1FD4800894E108F108010920
:105A300011090BC0C801B7016D0D711D811D911DAC
:105A40000E949B318823F9F0DA94DD2099F7EB8DE1
:105A5000FC8D20E032E040E050E0058404C0220FDD
:105A6000331F441F551F0A94D2F78B899C89AD8937
:105A7000BE89820F931FA41FB51F8B8B9C8BAD8B90
:105A8000BE8B81E001C080E0DF91CF911F910F912B
:105A9000FF90EF90DF9008956F927F928F929F9288
:105AA000AF92BF92CF92DF92EF92FF920F931F932C
:105AB000DF93CF93CDB7DEB72B970FB6F894DEBF49
:105AC0000FBECDBF5C016B01822EDC0115968C915F
:105AD000882309F0D2C0CA018E010F5F1F4FB801A1
