:100000000C94FE030C94A2130C94D3130C940414BC
:100010000C9435140C9466140C9497140C94C81416
:100020000C94F9140C942A040C942A040C942A04B9
:100030000C942A040C942A040C942A040C942A0488
:100040000C942A040C942A040C942A040C942A0478
:100050000C942A040C942A040C942A040C9415126F
:100060000C942A040C9430180C945C190C942A04F7
:100070000C942A040C942A040C942A040C942A0448
:100080000C942A040C942A040C942A040C942A0438
:100090000C9469180C949B190C942A040C942A044F
:1000A0000C942A040C942A040C942A040C942A0418
:1000B0000C942A040C942A040C942A040C942A0408
:1000C0000C942A040C942A040C942A040C94A2186C
:1000D0000C94DA190C942A040C94DB180C94191A59
:1000E0000C942A0400002100240027002A002D007F
:1000F0003000330001010000040107010A01000083
:100100002200250028002B002E00310034000201BF
:100110000000050108010B0100002000230026005B
:1001200029002C002F00320000010000030106010D
:10013000090105050505070508080808020202026D
:100140000A0A080804040404010101010101010173
:100150000303030303030303040707070C0C0C0C3E
:100160000C0C0C0C02020202060606060606060627
:100170000B0B0B0B0B0B0B0B0102102020080810B4
:100180002040102040800201020108040201010207
:1001900004081020408080402010080402018004E0
:1001A000020180402010080402010804020101023B
:1001B0000408102040800102040810204080000044
:1001C000090A02080B0C0D070603040100000000D9
:1001D000000000000000000000000000000000001F
:1001E0000000000000000000000011100F000000DF
:1001F00000000000000000000000000000000000FF
:100200000000000000000000003E5B4F5B3E3E6BC4
:100210004F6B3E1C3E7C3E1C183C7E3C181C577DA0
:10022000571C1C5E7F5E1C00183C1800FFE7C3E7EC
:10023000FF0018241800FFE7DBE7FF30483A060EFE
:100240002629792926407F050507407F05253F5A45
:100250003CE73C5A7F3E1C1C08081C1C3E7F1422B5
:100260007F22145F5F005F5F06097F017F00668960
:10027000956A606060606094A2FFA29408047E04A6
:100280000810207E201008082A1C08081C2A0808CC
:100290001E101010100C1E0C1E0C30383E3830068C
:1002A0000E3E0E06000000000000005F0000000788
:1002B000000700147F147F14242A7F2A12231308B6
:1002C000646236495620500008070300001C224192
:1002D000000041221C002A1C7F1C2A08083E080836
:1002E00000807030000808080808000060600020E6
:1002F000100804023E5149453E00427F40007249C9
:100300004949462141494D331814127F102745456C
:1003100045393C4A49493141211109073649494982
:1003200036464949291E00001400000040340000F0
:100330000008142241141414141400412214080259
:10034000015909063E415D594E7C1211127C7F49CC
:100350004949363E414141227F4141413E7F494921
:1003600049417F090909013E414151737F0808084D
:100370007F00417F41002040413F017F081422411E
:100380007F404040407F021C027F7F0408107F3E78
:100390004141413E7F090909063E4151215E7F09E5
:1003A000192946264949493203017F01033F40404C
:1003B000403F1F2040201F3F4038403F6314081437
:1003C0006303047804036159494D43007F4141416F
:1003D0000204081020004141417F04020102044050
:1003E00040404040000307080020545478407F28D4
:1003F0004444383844444428384444287F385454CA
:10040000541800087E090218A4A49C787F080404EC
:100410007800447D40002040403D007F102844008B
:1004200000417F40007C047804787C08040478381C
:1004300044444438FC1824241818242418FC7C084C
:10044000040408485454542404043F44243C4040C9
:10045000207C1C2040201C3C4030403C442810287C
:10046000444C9090907C4464544C440008364100C5
:100470000000770000004136080002010204023C3F
:100480002623263C1EA1A161123A4040207A38540E
:100490005455592155557941215454784121555489
:1004A000784020545579400C1E52721239555555DA
:1004B00059395454545939555454580000457C41C5
:1004C0000002457D420001457C40F0292429F0F0DE
:1004D000282528F07C545545002054547C547C0A2F
:1004E000097F4932494949323248484832324A48FC
:1004F00048303A4141217A3A42402078009DA0A0FC
:100500007D39444444393D4040403D3C24FF24244F
:10051000487E4943662B2FFC2F2BFF0929F620C06C
:10052000887E090320545479410000447D413048BD
:10053000484A32384040227A007A0A0A727D0D1900
:10054000317D2629292F28262929292630484D4062
:1005500020380808080808080808382F10C8ACBA5E
:100560002F102834FA00007B000008142A142222DD
:10057000142A1408AA005500AAAA55AA55AA0000D0
:1005800000FF00101010FF00141414FF001010FFE3
:1005900000FF1010F010F0141414FC001414F700F5
:1005A000FF0000FF00FF1414F404FC141417101FC4
:1005B00010101F101F1414141F00101010F0000052
:1005C00000001F101010101F10101010F01000006D
:1005D00000FF101010101010101010FF100000007D
:1005E000FF140000FF00FF00001F10170000FC04B4
:1005F000F414141710171414F404F40000FF00F797
:1006000014141414141414F700F7141414171410F9
:10061000101F101F141414F4141010F010F0000028
:100620001F101F0000001F14000000FC140000F049
:1006300010F01010FF10FF141414FF141010101FEE
:1006400000000000F010FFFFFFFFFFF0F0F0F0F0FF
:10065000FFFFFF0000000000FFFF0F0F0F0F0F381C
:10066000444438447C2A2A3E147E02020606027E56
:10067000027E0263554941633844443C04407E2075
:100680001E2006027E020299A5E7A5991C2A492A86
:100690001C4C7201724C304A4D4D30304878483015
:1006A000BC625A463D3E494949007E0101017E2A0D
:1006B0002A2A2A2A44445F444440514A4440404440
:1006C0004A51400000FF0103E080FF000008086B72
:1006D0006B083612362436060F090F06000018186C
:1006E0000000001010003040FF0101001F01011E3A
:1006F00000191D1712003C3C3C3C00000000000F9C
:100700000180961180FFB103012C2DB203012C2D25
:10071000B306012C2D012C2DB40107C003A20284C5
:10072000C101C5C2020A00C3028A2AC4028AEEC5F8
:10073000010E20003601C83A0105022A0400020019
:10074000812B04000100A0022A040000007F2B047A
:100750000000009F04E010021C07123732292D29E7
:10076000252B3900010310E110031D07062E2C294B
:100770002D2E2E373F0000021013800A29806412AC
:100780000180321180FF3A81050AB1830006030A15
:10079000360108B6021502B40100C08202700AC117
:1007A0000105C2020102C5823C380AFC021115E0B3
:1007B0001009160920211B131917151E2B040502F9
:1007C0000EE1900B14081E221D181E1B1A242B0666
:1007D00006020F0A2A04000200812B040002008195
:1007E00013800A2980FF7C3C3E5E2B3D3F2F5B5DE2
:1007F0003B2C2A225C002C04831B8A2411241FBE5C
:10080000CFEFD1E2DEBFCDBF00E00CBF16E0A0E02D
:10081000B2E0E6ECFEE700E00BBF02C007900D92ED
:10082000A831B107D9F71BE0A8E1B6E001C01D92DD
:10083000A338B107E1F717E0CCEFD7E004C0229767
:10084000FE010E945D3FC63FD107C9F70E942018F4
:100850000C94C63B0C94000089E196E066E047E00A
:1008600028E00E94702010924E0610924F061092BF
:100870005006109251061092520610925306109292
:100880005406109255061092560610925706109272
:1008900058061092590610925A0610925B06109252
:1008A0005C0610925D060E945D1260936106709373
:1008B00062068093630690936406089590911806EB
:1008C0008091CD05981711F40E94610C08959091C4
:1008D00018068091CD05981711F40E94550C0895C3
:1008E000EF92FF920F931F93CF93DF93EC017B0165
:1008F00080E00E94401620912805309129058C0146
:10090000021B130B81E00E94401620912A053091B2
:100910002B05821B930B9C01C8010496099710F4C8
:1009200000E010E0C9010496099710F420E030E0DF
:10093000C80160E870E00E940B3F79836883C901B9
:1009400060E870E00E940B3FF701718360830E94B2
:100950005D127B018C018091610690916206A091ED
:100960006306B0916406E816F9060A071B0740F40F
:10097000E0926106F09262060093630610936406AB
:1009800080912C0590912D05A0912E05B0912F05F9
:100990002091610630916206409163065091640691
:1009A000820F931FA41FB51F8E159F05A007B107C7
:1009B00010F080E019C0E0926106F09262060093A8
:1009C00063061093640684E00E94101620E0892BD1
:1009D00009F421E080916006882321F080E0222341
:1009E00009F481E020936006DF91CF911F910F9170
:1009F000FF90EF90089584E060E00E942A1584E063
:100A000061E00E94DD1581E00E9440169093290567
:100A10008093280580E00E94401690932B058093D8
:100A20002A0508958BE299E065E00E94EE2688236E
:100A300029F50F920F9280E092E0EDB7FEB7928316
:100A400081830E94DE0B88E192E0EDB7FEB79283CE
:100A500081830E94DE0B8CE292E0EDB7FEB79283B9
:100A600081830E94DE0B84E492E0EDB7FEB79283AF
:100A700081830E94DE0B0F900F90FFCF0F920F9299
:100A80008DE792E0EDB7FEB7928381830E94DE0B83
:100A90000F900F9008950F931F9309E116E0C8017E
:100AA00061E00E946724C80160E00E941A23C80127
:100AB00060E070E040E050E00E945E20C80160E02D
:100AC00070E00E946A20C80161E00E946420C801B1
:100AD0006FE170E00E9454211F910F910895EF92F1
:100AE000FF920F931F93CF93DF93EC0180915E06EB
:100AF00090915F068C179D0789F1D0935F06C09394
:100B00005E0689E196E060E070E044E950E020E8AC
:100B100030E00CE010E0E0EEEE2EE7E0FE2E0E946A
:100B2000A22289E196E061E00E94642089E196E0DA
:100B30006FE178EF0E946A2089E196E060E070E062
:100B400046E950E00E945E2089E196E061E00E9463
:100B5000642089E196E0BE010E940D18DF91CF91DB
:100B60001F910F91FF90EF9008958CE892E00E9402
:100B70006F0508952F923F924F925F926F927F92EE
:100B80008F929F92AF92BF92CF92DF92EF92FF929D
:100B90000F931F93DF93CF93CDB7DEB765970FB653
:100BA000F894DEBF0FBECDBF8DB79EB740917F0BCF
:100BB0005091800B4115510511F09A0104C020910C
:100BC0002205309123056091260570912705821B2F
:100BD000930B8617970730F52DB73EB74115510592
:100BE00021F4409122055091230500D000D0EDB7AB
:100BF000FEB731968DE892E0ADB7BEB712969C93E2
:100C00008E931197241B350B338322837583648362
:100C10000E94DE0BEDB7FEB736960FB6F894FEBF16
:100C20000FBEEDBF80914506882311F4992404C0BE
:100C300010924506992493941A8219821C821B8271
:100C4000F8949091CD05809118061D8A981711F09F
:100C5000F1E0FD8B78942D89222309F441C0309175
:100C600065068091CD053817E9F02091CD0500D0BB
:100C700000D0EDB7FEB731968EE992E0ADB7BEB7C2
:100C800012969C938E93119732831382248315823C
:100C90000E94DE0BEDB7FEB736960FB6F894FEBF96
:100CA0000FBEEDBF0E94360E4091D3055091D40582
:100CB0005695479580916A0690916B062091D505CF
:100CC0003091D6053695279560916C0670916D062A
:100CD000621B730B841B950B0E94890C99249394BF
:100CE000CE010196BE016D5F7F4F0E947004D82E29
:100CF00089819A81892B29F48B819C81892B09F424
:100D000057C0E0906606F090670600916806109163
:100D10006906CE010596BE01695F7F4F0E946D0C8A
:100D2000882309F445C08D819E818A30910548F45D
:100D3000E0906606F090670620EE3FEFE20EF31EAD
:100D40000DC08637910510F420E009C0E0906606DA
:100D5000F090670640E250E0E40EF51E21E08F813E
:100D600098858A30910538F40091680610916906DB
:100D7000005210400CC08637910538F0009168068B
:100D800010916906005E1F4F02C0222339F0C7018F
:100D9000B8010E94890C992493940AC00E94BC0C4B
:100DA0006B817C8189819A810E943E0F0E94280D6F
:100DB000DD2009F469C16DB77EB76A5070400FB687
:100DC000F8947EBF0FBE6DBFEDB7FEB7319685EBD1
:100DD00092E0ADB7BEB712969C938E931197809117
:100DE000720690917306A0917406B0917506828385
:100DF0009383A483B58380916E0690916F06A09132
:100E00007006B091710686839783A087B1870E9490
:100E1000DE0BA0906E06B0906F06C0907006D0906A
:100E20007106E0907206F0907306009174061091BE
:100E30007506EDB7FEB73A960FB6F894FEBF0FBE33
:100E4000EDBF80914C0690914D06892BE9F52DB7A9
:100E50003EB72A5030400FB6F8943EBF0FBE2DBFAC
:100E6000EDB7FEB7319684ED92E0ADB7BEB71296FE
:100E70009C938E931197A282B382C482D582E6821C
:100E8000F782008711870E94DE0BE0925206F092F3
:100E900053060093540610935506A0924E06B09246
:100EA0004F06C0925006D092510681E090E0909398
:100EB0004D0680934C06EDB7FEB73A960FB6F89400
:100EC000FEBF0FBEEDBFE0C02DB73EB72A50304089
:100ED0000FB6F8943EBF0FBE2DBFEDB7FEB73196EB
:100EE00080EF92E0ADB7BEB712969C938E931197A8
:100EF000A282B382C482D582E682F78200871187FC
:100F00000E94DE0BE0925A06F0925B0600935C06AC
:100F100010935D06A0925606B0925706C0925806EE
:100F2000D092590610924D0610924C06EDB7FEB7BE
:100F30003A960FB6F894FEBF0FBEEDBF8FEA98E069
:100F40006AE073E00E940A184091520650915306DD
:100F500060915406709155068FEA98E02AE030E0DF
:100F60000E9497178FEA98E06DE073E00E940A18DC
:100F700040914E0650914F06609150067091510677
:100F80008FEA98E02AE030E00E9497178FEA98E015
:100F90006DE073E00E940A1840915A0650915B067A
:100FA00060915C0670915D068FEA98E02AE030E07F
:100FB0000E9497178FEA98E06DE073E00E940A188C
:100FC0004091560650915706609158067091590607
:100FD0008FEA98E02AE030E00E94D71720914E0671
:100FE00030914F0640915006509151066091520643
:100FF000709153068091540690915506A090560624
:10100000B0905706C0905806D0905906E0905A0606
:10101000F0905B0600915C0610915D060E945311F2
:101020008C0100D00F928FE093E0ADB7BEB712965F
:101030009C938E93119714961C930E9313970E9472
:10104000DE0B0F900F900F900F9010161106E4F426
:1010500080914606909147068017910728F4909357
:1010600049068093480604C0109349060093480639
:10107000409146065091470680914A0690914B0652
:10108000B8010E94121003C0992009F419C20E94ED
:10109000F90C0E94280D809148069091490602970C
:1010A00008F4F5C1E091D305F091D405FC87EB87F6
:1010B0002091D5053091D6053E872D8741E050E03F
:1010C0005C8B4B8B1A861986D8C10F920F92E3E284
:1010D000F3E0ADB7BEB71296FC93EE9311970E9462
:1010E000DE0B0F900F90E0914A06F0914B06298598
:1010F0003A85E20FF31F40815181628173818091B3
:1011000065060E94970D2091660630916706790169
:1011100000E010E06E197F09800B910BE0914A0608
:10112000F0914B061616170618061906CCF44985D9
:101130005A85E40FF51F408151816281738180914E
:1011400065060E94970D1B012C0180916606909107
:101150006706A0E0B0E0281A390A4A0A5B0A12C002
:1011600069857A85E60FF71F40815181628173811D
:10117000809165060E94970D17012801261A370AEB
:10118000480A590AE0914A06F0914B0689859A85EA
:10119000E80FF91F4481558166817781809165064A
:1011A0000E94490D2091680630916906790100E09E
:1011B00010E06E197F09800B910BE0914A06F091C7
:1011C0004B061616170618061906FCF4A985BA85EB
:1011D000EA0FFB1F44815581668177818091650606
:1011E0000E94490D6F87788B898B9A8B8091680656
:1011F00090916906A0E0B0E02F85388949895A8925
:10120000281B390B4A0B5B0B12C049855A85E40F2A
:10121000F51F4481558166817781809165060E9422
:10122000490DA8019701261B370B480B590B2F8737
:10123000388B498B5A8B2091660630916706C9011D
:10124000A0E0B0E082159305A405B5050CF05EC1E1
:101250004B855C85240F351FC901A0E0B0E028163E
:1012600039064A065B060CF051C1209168063091A0
:101270006906C901A0E0B0E04F85588969897A897B
:1012800084179507A607B7070CF040C16D857E85CA
:10129000260F371FC901A0E0B0E02F8538894989A2
:1012A0005A89281739074A075B070CF02FC1DAC0A3
:1012B000EC0DFD1D40815181628173818091650635
:1012C0000E94970D3B014C01809166069091670644
:1012D000A0E0B0E0681A790A8A0A9B0A10C0EC0DF7
:1012E000FD1D4081518162817381809165060E945C
:1012F000970D37014801661A770A880A990AE09122
:101300004A06F0914B06EC0DFD1D44815581668126
:101310007781809165060E94490D20916806309181
:101320006906790100E010E06E197F09800B910BCE
:10133000E0914A06F0914B06161617061806190694
:10134000BCF4EC0DFD1D448155816681778180914F
:1013500065060E94490D5B016C01809168069091C1
:101360006906A0E0B0E0A81AB90ACA0ADB0A10C0F0
:10137000EC0DFD1D44815581668177818091650664
:101380000E94490D57016801A61AB70AC80AD90A6E
:101390004DB75EB7425150400FB6F8945EBF0FBED6
:1013A0004DBFEDB7FEB7319626E433E0ADB7BEB71B
:1013B00012963C932E931197228233824482558257
:1013C000A682B782C086D186628673868486958619
:1013D000A686B786C08AD18A0E94DE0B4DB75EB75B
:1013E0004E5E5F4F0FB6F8945EBF0FBE4DBF89E1F2
:1013F00096E0B1014F85588993018501FFE1EF2EF9
:10140000F12C0E941A1E6DB77EB7625170400FB664
:10141000F8947EBF0FBE6DBFEDB7FEB731962BE6D9
:1014200033E0ADB7BEB712963C932E93119722824C
:10143000338244825582A682B782C086D186628674
:10144000738684869586A686B786C08AD18A0E94CE
:10145000DE0B4DB75EB74E5E5F4F0FB6F8945EBFC2
:101460000FBE4DBF6B897C896F5F7F4F7C8B6B8B11
:1014700089859A8508969A878987809148069091F0
:101480004906AB89BC89A817B90708F41ECE0E948B
:10149000B505BD89BB23A1F0F894809165068093C2
:1014A000CD058093180678940F920F928AE893E006
:1014B000EDB7FEB7928381830E94DE0B0F900F90F1
:1014C00080914C0690914D06892B19F48AE993E09E
:1014D00002C080EA93E00E946F0565960FB6F8940B
:1014E000DEBF0FBECDBFCF91DF911F910F91FF9057
:1014F000EF90DF90CF90BF90AF909F908F907F90B4
:101500006F905F904F903F902F900895C984DA8438
:1015100028E030E0C20ED31EE0914A06F0914B065F
:10152000EC0DFD1D408151816281738180916506C2
:101530000E94970D2091660630916706790100E0C0
:1015400010E06E197F09800B910BE0914A06F09133
:101550004B0616161706180619060CF4A9CEBFCEB0
:10156000CF92DF92EF92FF920F931F93CF93DF936F
:101570008FEA98E040E855E260E070E00E94581A77
:101580008FEA98E064EA73E00E940D188FEA98E011
:101590000E94381B0E944B050E9412050E94FB040A
:1015A0000E94300CC0906506CC2DD0E074E0CC0FCA
:1015B000DD1F7A95E1F76DE6C62E65E0D62ECC0EDE
:1015C000DD1EFE01EF58FA4FD6011C966D917D91FC
:1015D0008D919C911F972081318142815381620FAF
:1015E000731F841F951F22E030E040E050E00E940E
:1015F000403F79018A01CB58DA4F688179818A812D
:101600009B81F6012081318142815381620F731FDA
:10161000841F951F22E030E040E050E00E94403FF0
:10162000C801B7010E94DB0D8091D3059091D405CC
:101630009695879540916606509167066091D5050D
:101640007091D60576956795209168063091690668
:10165000620F731F840F951F0E94EE0E81E080932E
:10166000450682E060E00E942A1582E061E00E9467
:10167000DD1583E060E00E942A1583E061E00E94AE
:10168000DD1581E067E674E042E050E00E94261339
:1016900080E06EE574E042E050E00E94261368EEC0
:1016A00073E080E090E00E946B1284E690E09093FB
:1016B0004706809346068DB79EB720917F0B3091E9
:1016C000800B2115310511F0A90104C040912205BC
:1016D000509123056091260570912705841B950B79
:1016E000861B970B80529340B0F48DB79EB721159F
:1016F000310521F42091220530912305821B930BA3
:10170000861B970B03E0969587950A95E1F79093D2
:10171000470680934606809146069091470613E05F
:10172000880F991F1A95E1F70E94623980934A0643
:1017300090934B0600D00F9280EB93E0ADB7BEB70D
:1017400012969C938E93119780914606909147062E
:1017500014969C938E9313970E94DE0B1092490669
:10176000109248064DB75EB720917F0B3091800BE9
:101770000F900F900F900F902115310521F42091BB
:1017800022053091230500D00F9281EC93E0EDB754
:10179000FEB792838183421B530B548343830E9481
:1017A000DE0B0F900F900F900F90DF91CF911F9154
:1017B0000F91FF90EF90DF90CF900895CF92DF923E
:1017C000EF92FF920F931F93DF93CF93CDB7DEB7C6
:1017D000EDB6FEB6CEB680913005882359F18DB7AF
:1017E0009EB7805091400FB6F8949EBF0FBE8DBF3C
:1017F0000DB71EB70F5F1F4FFE013E96C80160E098
:1018000071E04C855D859F010E94F83B8FEA98E06E
:101810006DEC73E00E940A188FEA98E0B8010E940C
:101820000D182E2D3C2DC9010FB6F8949EBF0FBE8A
:101830008DBF08C08DB79EB79C010FB6F8943EBF10
:101840000FBE2DBF0FB6F894FEBE0FBEEDBECF91FA
:10185000DF911F910F91FF90EF90DF90CF9008954F
:1018600010926E0610926F0610927006109271061A
:1018700010927206109273061092740610927506FA
:1018800010926B0610926A0610926D0610926C060A
:10189000109267061092660610926906109268060A
:1018A0008091CD058093650608958091CD058530A2
:1018B00028F48091CD058F5F8093CD058091CD0573
:1018C00008958091CD05882329F08091CD05815020
:1018D0008093CD058091CD050895FC01DB018091B9
:1018E0006A0690916B062091660630916706821B0E
:1018F000930B9183808380916C0690916D0620916B
:10190000680630916906821B930B8D939C9381E04E
:10191000089597FF03C0E0E0F0E010C0E091650695
:10192000F0E0EE0FFF1FEF5CFA4F0190F081E02D29
:10193000E058F0408E179F0708F4FC01F09367060B
:10194000E093660677FF03C060E070E010C0E091AE
:101950006506F0E0EE0FFF1FE35CFA4F0190F081A7
:10196000E02DE05AF040E617F70708F4BF01709346
:101970006906609368060895AF92BF92CF92DF9296
:10198000EF92FF920F931F9340916A0650916B065E
:101990004250504020916C0630916D0622503040EC
:1019A0008091650666E0869FC001112460916606FD
:1019B000709167068A01061B170B6091680670918B
:1019C00069067901E61AF70A875B9A4F69E176E0C2
:1019D000F5E0CF2ED12CE5E0AE2EB12C0E941438CC
:1019E0001F910F91FF90EF90DF90CF90BF90AF903D
:1019F0000895AF92BF92CF92DF92EF92FF920F9332
:101A00001F938091650626E0829FC00111244091BA
:101A10006606509167062091680630916906875BDB
:101A20009A4F69E176E000E010E0EE24FF24B0E890
:101A3000CB2ED12CA0EAAA2EB12C0E9414381F91D3
:101A40000F91FF90EF90DF90CF90BF90AF900895EF
:101A50000F931F9360916A0670916B0680916606E2
:101A600090916706681B790B40916C0650916D064A
:101A70008091680690916906481B590B89E196E0B0
:101A800022E030E000E018EF0E94E61D1F910F9168
:101A90000895AF92BF92CF92DF92EF92FF920F9391
:101AA0001F935A016B01A82FBB27A7FDB09500D04B
:101AB0000F926DE675E0FD0184E0EE0FFF1F8A9541
:101AC000E1F7E60FF71F2081318142815381AA0F90
:101AD000BB1FCD01019613E0880F991F1A95E1F7FE
:101AE000680F791FFB01E080F18002811381A35C04
:101AF000BA4F8D919C91A0E0B0E0EDB7FEB7818325
:101B00009283A383B483C601B501AA24BB246501D3
:101B10000E9474160F900F900F900F901F910F91CD
:101B2000FF90EF90DF90CF90BF90AF900895AF926D
:101B3000BF92CF92DF92EF92FF920F931F935A01C1
:101B40006B01A82FBB27A7FDB09500D00F92FD0118
:101B500004E0EE0FFF1F0A95E1F78DE695E0E80F30
:101B6000F91F2481358146815781E484F5840685F7
:101B70001785AA0FBB1FAF5CBA4F8D919C91A0E057
:101B8000B0E0EDB7FEB781839283A383B483C6012F
:101B9000B501AA24BB2465010E9474160F900F9012
:101BA0000F900F901F910F91FF90EF90DF90CF90CB
:101BB000BF90AF900895AF92BF92CF92DF92EF9215
:101BC000FF920F931F937B018C0159016A01809151
:101BD0006506B801A7010E94970D70936706609390
:101BE000660680916506B601A5010E94490D209107
:101BF00066063091670637FF03C0E0E0F0E010C0F2
:101C0000E0916506F0E0EE0FFF1FEF5CFA4F0190E8
:101C1000F081E02DE058F0402E173F0708F4F9015D
:101C2000F0936706E093660677FF03C060E070E01C
:101C300010C0E0916506F0E0EE0FFF1FE35CFA4F85
:101C40000190F081E02DE05AF040E617F70708F424
:101C5000BF0170936906609368061F910F91FF9012
:101C6000EF90DF90CF90BF90AF9008958091CD0519
:101C70008093650640916E0650916F0660917006E4
:101C8000709171060E94970D70936B0660936A06BF
:101C900040917206509173066091740670917506BA
:101CA000809165060E94490D70936D0660936C06E5
:101CB000809165060895AF92BF92CF92DF92EF9226
:101CC000FF920F931F93A82FBB27A7FDB09500D0BD
:101CD0000F92CD01880F991FFC01E35CFA4FE08061
:101CE000F18000E010E0EDE6F5E034E0AA0FBB1F64
:101CF0003A95E1F7AE0FBF1FAD90BD90CD90DC904F
:101D0000019623E0880F991F2A95E1F7E80FF91F44
:101D100080819181A281B381EDB7FEB781839283E7
:101D2000A383B483CB01BA0120E030E040E050E06F
:101D30000E9474160F900F900F900F901F910F91AB
:101D4000FF90EF90DF90CF90BF90AF900895AF924B
:101D5000BF92CF92DF92EF92FF920F931F9399273A
:101D600087FD909500D00F92FC01EE0FFF1FEF5CF6
:101D7000FA4FE080F18000E010E0B4E0880F991F96
:101D8000BA95E1F7EDE6F5E0DF01A80FB91F14966B
:101D9000AD90BD90CD90DC901797E80FF91F84852A
:101DA0009585A685B785EDB7FEB781839283A3831A
:101DB000B483CB01BA0120E030E040E050E00E9463
:101DC00074160F900F900F900F901F910F91FF902E
:101DD000EF90DF90CF90BF90AF90089597FF03C032
:101DE00080E090E00EC0E0916506F0E0EE0FFF1F8E
:101DF000EF5CFA4F0190F081E02DE817F90708F445
:101E0000CF0190936B0680936A0677FF03C060E072
:101E100070E00EC0E0916506F0E0EE0FFF1FE35C9E
:101E2000FA4F0190F081E02DE617F70708F4BF01A3
:101E300070936D0660936C06AC0160E070E0809179
:101E400065060E94A70E60936E0670936F068093DE
:101E500070069093710640916C0650916D0660E09B
:101E600070E0809165060E945B0E6093720670932D
:101E700073068093740690937506089540916A06E0
:101E800050916B0620916C0630916D06260F371F1E
:101E9000840F951FB9010E94EE0E0895EF92FF92F4
:101EA0000F931F93CF93DF93EC0160E070E04AE063
:101EB00050E00E94973A7B018C0161157105810504
:101EC000910551F520917D0B30917E0B2232310529
:101ED00019F500D000D0EDB7FEB731968CE094E054
:101EE000ADB7BEB712969C938E931197338322831E
:101EF000D583C4830E94DE0B8DB79EB706960FB6BE
:101F0000F8949EBF0FBE8DBF60917D0B70917E0BCC
:101F100080E090E00E94BB1CB701C801DF91CF9127
:101F20001F910F91FF90EF9008954F925F926F92E3
:101F30007F928F929F92BF92CF92DF92EF92FF9209
:101F40000F931F93CF93DF934B016A01290138014F
:101F50007C01E60EF71E00E010E0E801C80DD91D77
:101F6000F701B080BB2099F0C201801B910B029752
:101F7000A0F06B2D772767FD7095C3010E94DE3BB3
:101F80000F5F1F4F0894E11CF11C009711F0219680
:101F900004C0F601B1926F01E0CFF6011082CE01CC
:101FA000DF91CF911F910F91FF90EF90DF90CF9035
:101FB000BF909F908F907F906F905F904F9008950B
:101FC000EF92FF920F931F93CF93DF938C017B01CE
:101FD000C0E0D0E00894E108F10815C08FEA98E06D
:101FE0000E94DE1A892BD1F38FEA98E00E940F1B22
:101FF000F801EC0FFD1F80838D3041F08A3031F005
:10200000882321F02196CE15DF0540F30C0F1D1F0C
:10201000F8011082CE01DF91CF911F910F91FF90B7
:10202000EF9008952F923F924F925F926F927F921E
:102030008F929F92AF92BF92CF92DF92EF92FF92D8
:102040000F931F93DF93CF93CDB7DEB728970FB6CB
:10205000F894DEBF0FBECDBFB82EA92E1B012A01FA
:102060002DB73EB73A8329838DB79EB780970FB6B9
:10207000F8949EBF0FBE8DBFEDB6FEB60894E11C6E
:10208000F11CADB7BEB790970FB6F894BEBF0FBEA8
:10209000ADBFCDB6DEB60894C11CD11CEDB7FEB7FE
:1020A000B0970FB6F894FEBF0FBEEDBF0DB71EB7C9
:1020B0000F5F1F4F00D000D0EDB7FEB7319688E319
:1020C00094E0ADB7BEB712969C938E93119773832D
:1020D0006283558344830E94DE0BEDB7FEB73696CC
:1020E0000FB6F894FEBF0FBEEDBF1214130414F424
:1020F00057FE1EC000D000D0EDB7FEB7319683E684
:1021000094E0ADB7BEB712969C938E93119733822D
:102110002282558244820E94DE0B2FEF3FEFEDB703
:10212000FEB736960FB6F894FEBF0FBEEDBF9AC04D
:1021300000D00F928BE794E0ADB7BEB712969C9398
:102140008E93119714965C924E9213970E94DE0B19
:102150000F900F900F900F908FEA98E06FE874E067
:102160000E940D180F831887ED82FE82CB82DC82DD
:102170002B2D3A2DC9013C01882499248F81988503
:1021800060E270E00E94E00FF82EE92E8FEA98E0FE
:102190006FE874E00E940D188F81988562E070E00E
:1021A0004D815E812F2D3E2D01E914E00E94950F97
:1021B0009C01442737FD4095542F8F819885B901A4
:1021C0004B815C812F2D3E2D0E94950F8B819C8130
:1021D0000E944E0F5B016C018D819E810E944E0F0B
:1021E0007B018C018414950484F5EDB7FEB73A9712
:1021F0000FB6F894FEBF0FBEEDBF319623E934E071
:10220000ADB7BEB712963C932E931197628373833A
:1022100084839583A682B782C086D1860E94DE0B16
:10222000D3011496ED92FD920D931C931797F30131
:10223000A082B182C282D3822DB73EB7265F3F4FC4
:102240000FB6F8943EBF0FBE2DBF0894811C911CA1
:1022500088E090E0680E791E821493040CF48ECF0F
:1022600020E030E0C901A981BA810FB6F894BEBF61
:102270000FBEADBF28960FB6F894DEBF0FBECDBF20
:10228000CF91DF911F910F91FF90EF90DF90CF9052
:10229000BF90AF909F908F907F906F905F904F9086
:1022A0003F902F9008952F923F924F925F926F929E
:1022B0007F928F929F92AF92BF92CF92DF92EF92D6
:1022C000FF920F931F93DF93CF93CDB7DEB7649741
:1022D0000FB6F894DEBF0FBECDBF29833A834B8380
:1022E0005C836D837E838F839887A986BA86CB862D
:1022F000DC86ED86FE860F87188B2DB63EB6CD8028
:10230000DE80EF80F88489809A80AB80BC804D8429
:102310005E846F84788889859A85AB85BC85898B36
:102320009A8BAB8BBC8BADB7BEB790970FB6F894BA
:10233000BEBF0FBEADBF0DB71EB70F5F1F4FC801A9
:1023400060E270E00E94E00F8DB79EB742970FB633
:10235000F8949EBF0FBE8DBFEDB7FEB7319685EAEC
:1023600094E0ADB7BEB712969C938E931197C2823C
:10237000D382E482F58286829782A086B1864286E5
:1023800053866486758689899A89AB89BC898687D4
:102390009787A08BB18B0E94DE0BADB7BEB752966C
:1023A0000FB6F894BEBF0FBEADBF8FEA98E0B8017C
:1023B0000E940D18C80102960E944E0F162F072F7B
:1023C00000D00F92EDB7FEB7319683ED94E0ADB734
:1023D000BEB712969C938E931197128303830E942B
:1023E000DE0B0F900F900F900F90812F902F0FB654
:1023F000F8943EBE0FBE2DBE64960FB6F894DEBFB5
:102400000FBECDBFCF91DF911F910F91FF90EF9045
:10241000DF90CF90BF90AF909F908F907F906F9004
:102420005F904F903F902F9008951F920F920FB69C
:102430000F9211242F933F938F939F93AF93BF934A
:1024400080917A0690917B06A0917C06B0917D06E2
:1024500030917E060196A11DB11D232F2D5F2D37D2
:1024600020F02D570196A11DB11D20937E0680936B
:102470007A0690937B06A0937C06B0937D068091AC
:10248000760690917706A0917806B091790601962C
:10249000A11DB11D8093760690937706A0937806D0
:1024A000B0937906BF91AF919F918F913F912F91FA
:1024B0000F900FBE0F901F9018958FB7F894209132
:1024C0007A0630917B0640917C0650917D068FBF45
:1024D000B901CA0108959B01AC017FB7F8948091BE
:1024E000760690917706A0917806B091790666B548
:1024F000A89B05C06F3F19F00196A11DB11D7FBFBC
:10250000BA2FA92F982F8827860F911DA11DB11DC5
:1025100062E0880F991FAA1FBB1F6A95D1F7BC0103
:102520002DC0FFB7F8948091760690917706A09120
:102530007806B0917906E6B5A89B05C0EF3F19F083
:102540000196A11DB11DFFBFBA2FA92F982F882773
:102550008E0F911DA11DB11DE2E0880F991FAA1FCA
:10256000BB1FEA95D1F7861B970B885E9340C8F294
:10257000215030404040504068517C4F211531057A
:102580004105510571F60895789484B5826084BD43
:1025900084B5816084BD85B5826085BD85B5816067
:1025A00085BDEEE6F0E0808181608083E1E8F0E0C7
:1025B0001082808182608083808181608083E0E8F6
:1025C000F0E0808181608083E1EBF0E080818460D5
:1025D0008083E0EBF0E0808181608083E1E9F0E0DE
:1025E000808182608083808181608083E0E9F0E087
:1025F000808181608083E1EAF0E080818260808375
:10260000808181608083E0EAF0E080818160808366
:10261000E1E2F1E08081826080838081816080835B
:10262000E0E2F1E0808181608083EAE7F0E0808190
:1026300084608083808182608083808181608083E8
:102640008081806880831092C1000895883008F0EE
:1026500078C0E82FF0E0EE0FFF1FE158F94F7183CB
:1026600060838330D9F0843030F4813009F444C081
:10267000823060F439C0853051F18530D8F0863031
:1026800009F446C0873009F05CC04FC080916900F2
:102690008C7F842B80936900E89A0895809169006B
:1026A000440F551F440F551F837F842B809369006F
:1026B000E99A08958091690074E0440F551F7A9556
:1026C000E1F78F7C842B80936900EA9A08958091CA
:1026D000690066E0440F551F6A95E1F78F73842BFC
:1026E00080936900EB9A089580916A008C7F842B17
:1026F00080936A00EC9A089580916A00440F551FF8
:10270000440F551F837F842B80936A00ED9A0895B0
:1027100080916A0024E0440F551F2A95E1F78F7CD1
:10272000842B80936A00EE9A089580916A0096E067
:10273000440F551F9A95E1F78F73842B80936A009D
:10274000EF9A08951F920F920FB60F920BB60F9249
:1027500011242F933F934F935F936F937F938F93A6
:102760009F93AF93BF93EF93FF93809183069091D4
:102770008406892B29F0E0918306F091840619954F
:10278000FF91EF91BF91AF919F918F917F916F9149
:102790005F914F913F912F910F900BBE0F900FBE05
:1027A0000F901F9018951F920F920FB60F920BB6B5
:1027B0000F9211242F933F934F935F936F937F93C7
:1027C0008F939F93AF93BF93EF93FF938091850671
:1027D00090918606892B29F0E0918506F091860676
:1027E0001995FF91EF91BF91AF919F918F917F913B
:1027F0006F915F914F913F912F910F900BBE0F9072
:102800000FBE0F901F9018951F920F920FB60F9248
:102810000BB60F9211242F933F934F935F936F93B7
:102820007F938F939F93AF93BF93EF93FF93809189
:10283000870690918806892B29F0E0918706F09110
:1028400088061995FF91EF91BF91AF919F918F915C
:102850007F916F915F914F913F912F910F900BBEA0
:102860000F900FBE0F901F9018951F920F920FB6EA
:102870000F920BB60F9211242F933F934F935F93B8
:102880006F937F938F939F93AF93BF93EF93FF9338
:102890008091890690918A06892B29F0E09189061A
:1028A000F0918A061995FF91EF91BF91AF919F9199
:1028B0008F917F916F915F914F913F912F910F90E9
:1028C0000BBE0F900FBE0F901F9018951F920F9286
:1028D0000FB60F920BB60F9211242F933F934F9385
:1028E0005F936F937F938F939F93AF93BF93EF9378
:1028F000FF9380917F0690918006892B29F0E091CB
:102900007F06F09180061995FF91EF91BF91AF91ED
:102910009F918F917F916F915F914F913F912F91F7
:102920000F900BBE0F900FBE0F901F9018951F9227
:102930000F920FB60F920BB60F9211242F933F9365
:102940004F935F936F937F938F939F93AF93BF93B7
:10295000EF93FF938091810690918206892B29F055
:10296000E0918106F09182061995FF91EF91BF9158
:10297000AF919F918F917F916F915F914F913F9117
:102980002F910F900BBE0F900FBE0F901F901895B8
:102990001F920F920FB60F920BB60F9211242F9326
:1029A0003F934F935F936F937F938F939F93AF93D7
:1029B000BF93EF93FF9380918B0690918C06892BA8
:1029C00029F0E0918B06F0918C061995FF91EF911B
:1029D000BF91AF919F918F917F916F915F914F9137
:1029E0003F912F910F900BBE0F900FBE0F901F9035
:1029F00018951F920F920FB60F920BB60F921124DB
:102A00002F933F934F935F936F937F938F939F93F6
:102A1000AF93BF93EF93FF9380918D0690918E06B5
:102A2000892B29F0E0918D06F0918E061995FF9182
:102A3000EF91BF91AF919F918F917F916F915F9136
:102A40004F913F912F910F900BBE0F900FBE0F90A3
:102A50001F901895CF93DF93482F50E0CA018858F4
:102A60009E4FFC0134914E5C5E4FFA0184918823A5
:102A700069F190E0880F991FFC01EC51FF4FA5917F
:102A8000B491FC01E250FF4FC591D491662351F4FB
:102A90002FB7F8948C91932F909589238C938881EC
:102AA00089230BC0623061F42FB7F8948C91932F77
:102AB000909589238C938881832B88832FBF06C0B0
:102AC0009FB7F8948C91832B8C939FBFDF91CF910C
:102AD0000895893009F449C08A30A0F4843051F156
:102AE000853040F4823079F1833000F5813009F08F
:102AF00063C026C0873079F1883098F5863009F0B8
:102B00005BC025C08D3009F442C08E3028F48B3074
:102B1000B1F18C30C0F52DC0803109F442C0813153
:102B200009F445C08F3009F047C037C0809180005C
:102B30008F7703C0809180008F7D809380000895FF
:102B400084B58F7702C084B58F7D84BD0895809150
:102B5000B0008F7703C08091B0008F7D8093B0006C
:102B60000895809190008F7707C0809190008F7DAD
:102B700003C080919000877F80939000089580919A
:102B8000A0008F7707C08091A0008F7D03C0809147
:102B9000A000877F8093A0000895809120018F7707
:102BA00003C0809120018F7D809320010895809142
:102BB0002001877F809320010895FF920F931F9338
:102BC000F62E482F50E0CA0182549E4FFC012491FA
:102BD000CA0188589E4FFC0114914E5C5E4FFA0169
:102BE00004910023C9F0222319F0822F0E94691555
:102BF000E02FF0E0EE0FFF1FE250FF4FA591B491E0
:102C00009FB7F894FF2021F48C911095812302C086
:102C10008C91812B8C939FBF1F910F91FF900895F2
:102C20000F931F93482F50E0CA0182549E4FFC011E
:102C30002491CA0188589E4FFC0104914E5C5E4F5E
:102C4000FA011491112319F420E030E015C0222379
:102C500019F0822F0E946915812F90E0880F991F2B
:102C6000885E9E4FFC01A591B4918C9120E030E0EC
:102C7000802311F021E030E0C9011F910F910895E8
:102C8000382F863308F0365320917B00832F8695AA
:102C90008695869590E08170907043E0880F991F2B
:102CA0004A95E1F7277F282B20937B00377080918E
:102CB000CE058295880F880F807C832B80937C00C3
:102CC00080917A00806480937A0080917A0086FDFA
:102CD000FCCF2091780040917900942F80E030E083
:102CE000282B392BC90108952F923F924F925F9262
:102CF0006F927F928F929F92AF92BF92CF92DF920C
:102D0000EF92FF920F931F93DF93CF93CDB7DEB770
:102D10003B014C0119012A016E897F89888D998DAB
:102D20006A197B098C099D09621A730A840A950A3B
:102D3000A40193010E94D83EE218F3080409150982
:102D4000A80197010E94403F2A0D3B1D4C1D5D1DAF
:102D5000B901CA01CF91DF911F910F91FF90EF90C0
:102D6000DF90CF90BF90AF909F908F907F906F90AB
:102D70005F904F903F902F900895CF92DF92EF9207
:102D8000FF920F931F93CF93DF937C016B018A0116
:102D9000C0E0D0E00FC0D6016D916D01D701ED917B
:102DA000FC910190F081E02DC7011995C80FD91F42
:102DB000015010400115110571F7CE01DF91CF913F
:102DC0001F910F91FF90EF90DF90CF900895EF92B9
:102DD000FF920F931F938C01DC01ED91FC91019008
:102DE000F081E02D6DE019957C01D801ED91FC9109
:102DF0000190F081E02DC8016AE019959C012E0D2B
:102E00003F1DC9011F910F91FF90EF900895EF9220
:102E1000FF920F931F937C01DC01ED91FC910190D7
:102E2000F081E02D19958C01C7010E94E716080F6B
:102E3000191FC8011F910F91FF90EF900895CF9334
:102E4000DF93DB010D900020E9F71197A61BB70B6C
:102E5000EC01E881F9810280F381E02DAD01199543
:102E6000DF91CF9108954F925F927F928F929F92C0
:102E7000AF92BF92CF92DF92EF92FF920F931F9388
:102E8000DF93CF93CDB7DEB7A1970FB6F894DEBF2F
:102E90000FBECDBF2C01742ECB01223008F42AE0E6
:102EA00019A231E2C32ED12CCC0EDD1E822E992424
:102EB000AA24BB24672D752FA50194010E941E3FF3
:102EC00079018A01C801B701A50194010E94D83E89
:102ED000472D461B0894C108D1084A3014F4405DC0
:102EE00001C0495CF6014083E114F10401051105BC
:102EF00021F07E2C5F2DC801DDCFC201B6010E94FA
:102F00001F17A1960FB6F894DEBF0FBECDBFCF91AD
:102F1000DF911F910F91FF90EF90DF90CF90BF90C6
:102F2000AF909F908F907F905F904F900895CF9239
:102F3000DF92EF92FF920F931F93CF93DF93EC01F9
:102F40006A017B012115310541F4E881F981019085
:102F5000F081E02D642F19951FC02A303105D1F47E
:102F600077FF17C0E881F9810190F081E02D6DE2D3
:102F700019958C0144275527BA014C195D096E0932
:102F80007F09CE012AE00E9433179801280F391FCC
:102F900004C02AE00E9433179C01C901DF91CF9140
:102FA0001F910F91FF90EF90DF90CF900895EF92D7
:102FB000FF920F931F937C010E9497178C01C7010A
:102FC0000E94E7169C01200F311FC9011F910F912C
:102FD000FF90EF900895CF92DF92EF92FF920F93C0
:102FE0001F936C017B019A010027F7FC0095102FBD
:102FF000B801A7010E9497178C01C6010E94E7162D
:10300000080F191FC8011F910F91FF90EF90DF90DB
:10301000CF9008950E941F170895EF92FF920F938B
:103020001F937C010E941F178C01C7010E94E716A5
:10303000080F191FC8011F910F91FF90EF9008957D
:10304000CF93DF930E94C4120E94B00AC3E1D9E17A
:103050000E94BA052097E1F30E941319F9CF089551
:103060001F920F920FB60F920BB60F9211242F934F
:103070003F934F938F939F93EF93FF934091C6009D
:103080002091CF063091D0062F5F3F4F2F733070C5
:103090008091D1069091D2062817390759F0E09116
:1030A000CF06F091D006E157F94F40833093D00618
:1030B0002093CF06FF91EF919F918F914F913F9178
:1030C0002F910F900BBE0F900FBE0F901F90189571
:1030D00008951F920F920FB60F920BB60F92112404
:1030E0002F933F934F938F939F93EF93FF93409131
:1030F000CE0020915707309158072F5F3F4F2F7315
:1031000030708091590790915A072817390759F064
:10311000E0915707F0915807E95EF84F40833093EC
:10312000580720935707FF91EF919F918F914F91EF
:103130003F912F910F900BBE0F900FBE0F901F90DD
:10314000189508951F920F920FB60F920BB60F921B
:1031500011242F933F934F938F939F93EF93FF935C
:103160004091D6002091DF073091E0072F5F3F4F5D
:103170002F7330708091E1079091E207281739078B
:1031800059F0E091DF07F091E007E156F84F4083F6
:103190003093E0072093DF07FF91EF919F918F918C
:1031A0004F913F912F910F900BBE0F900FBE0F903C
:1031B0001F90189508951F920F920FB60F920BB69D
:1031C0000F9211242F933F934F938F939F93EF93DD
:1031D000FF934091360120916708309168082F5F76
:1031E0003F4F2F7330708091690890916A082817BB
:1031F000390759F0E0916708F0916808E95DF74FE9
:1032000040833093680820936708FF91EF919F9166
:103210008F914F913F912F910F900BBE0F900FBE4A
:103220000F901F901895E091BB08F091BC08E05CEE
:10323000FF4F8191919120813181821B930B8F737C
:103240009070892B11F00E942F18E091DA08F0910C
:10325000DB08E05CFF4F8191919120813181821BDD
:10326000930B8F739070892B11F00E946818E09176
:10327000F908F091FA08E05CFF4F8191919120816B
:103280003181821B930B8F739070892B11F00E94F8
:10329000A118E0911809F0911909E05CFF4F8191A4
:1032A000919120813181821B930B8F739070892BB8
:1032B00011F00E94DA1808951F920F920FB60F9224
:1032C0000BB60F9211242F933F938F939F93EF93FD
:1032D000FF93209113073091140780911507909167
:1032E00016072817390731F48091C1008F7D80932C
:1032F000C10014C0E0911507F0911607ED52F94F87
:103300002081809115079091160701968F73907018
:1033100090931607809315072093C600FF91EF91B5
:103320009F918F913F912F910F900BBE0F900FBEE9
:103330000F901F9018951F920F920FB60F920BB619
:103340000F9211242F933F938F939F93EF93FF93AB
:1033500020919B0730919C0780919D0790919E073B
:103360002817390731F48091C9008F7D8093C900F7
:1033700014C0E0919D07F0919E07E55AF84F208117
:1033800080919D0790919E0701968F739070909306
:103390009E0780939D072093CE00FF91EF919F9110
:1033A0008F913F912F910F900BBE0F900FBE0F90FA
:1033B0001F9018951F920F920FB60F920BB60F9297
:1033C00011242F933F938F939F93EF93FF9320911B
:1033D0002308309124088091250890912608281709
:1033E000390731F48091D1008F7D8093D10014C0D2
:1033F000E0912508F0912608ED51F84F2081809149
:1034000025089091260801968F7390709093260856
:10341000809325082093D600FF91EF919F918F9183
:103420003F912F910F900BBE0F900FBE0F901F90EA
:1034300018951F920F920FB60F920BB60F92112490
:103440002F933F938F939F93EF93FF932091AB081C
:103450003091AC088091AD089091AE0828173907DB
:1034600031F4809131018F7D8093310114C0E0915E
:10347000AD08F091AE08E559F74F20818091AD0875
:103480009091AE0801968F7390709093AE088093E0
:10349000AD0820933601FF91EF919F918F913F915D
:1034A0002F910F900BBE0F900FBE0F901F9018958D
:1034B000AF92BF92DF92EF92FF920F931F93CF9341
:1034C000DF93EC017A018B01DD24403081EE580757
:1034D00080E0680780E0780711F0DD24D39491E064
:1034E000A92EB12CEC89FD89DD2069F0C5010E8C77
:1034F00002C0880F991F0A94E2F7808360E079E0A8
:103500008DE390E005C0108260E874E88EE190E001
:10351000A80197010E941E3F21503040404050407A
:10352000569547953795279580E12030380720F04C
:10353000DD2011F0DD24D6CFE889F9893083EA89CE
:10354000FB892083EE89FF89408121E030E0C901B9
:103550000A8C02C0880F991F0A94E2F7482B408317
:10356000EE89FF894081C9010B8C02C0880F991F29
:103570000A94E2F7482B4083EE89FF894081C90114
:103580000C8C02C0880F991F0A94E2F7482B4083E5
:10359000EE89FF8980810D8C02C0220F331F0A94AF
:1035A000E2F7209528232083DF91CF911F910F917F
:1035B000FF90EF90DF90BF90AF900895DC011C96D4
:1035C000ED91FC911D97E05CFF4F2191319180813D
:1035D0009181281B390B2F733070C9010895DC01CC
:1035E0001C96ED91FC911D97E05CFF4F208131818D
:1035F000E054F040DF01AE5BBF4F8D919C9111977D
:103600002817390719F42FEF3FEF07C08D919C91D0
:10361000E80FF91F8081282F30E0C9010895DC01EF
:103620001C96ED91FC911D97E05CFF4F208131814C
:10363000E054F040DF01AE5BBF4F8D919C9111973C
:103640002817390719F42FEF3FEF10C08D919C9187
:103650001197E80FF91F20818D919C911197019688
:103660008F73907011969C938E9330E0C9010895EA
:10367000FC0186859785DC01A05CBF4FFC01EE5BF9
:10368000FF4F2D913C911197808191812817390727
:10369000C1F70895CF93DF93EC01EE85FF85E05CE1
:1036A000FF4F20813181E054F0402F5F3F4F2F7357
:1036B0003070DF01AE5BBF4F8D919C911197281741
:1036C0003907D1F3E05CFF4F80819181E054F040F5
:1036D000E80FF91F6083EE85FF85E05CFF4F3183C3
:1036E0002083EE89FF89208181E090E00D8C02C06B
:1036F000880F991F0A94E2F7282B208381E090E03D
:10370000DF91CF9108951F931092B2081092B108E3
:1037100028EE33E040E050E02093B3083093B40843
:103720004093B5085093B6086BED75E07093B00800
:103730006093AF088FE896E09093BC088093BB0835
:1037400083ED96E09093BE088093BD0885EC90E0F1
:103750009093C0088093BF0884EC90E09093C208D7
:103760008093C10880EC90E09093C4088093C308D4
:1037700081EC90E09093C6088093C50886EC90E0B9
:103780009093C8088093C70814E01093C908B3E069
:10379000B093CA08A7E0A093CB08F5E0F093CC085B
:1037A000E1E0E093CD081092D1081092D008209368
:1037B000D2083093D3084093D4085093D50870931F
:1037C000CF086093CE0887E197E09093DB08809361
:1037D000DA088BE597E09093DD088093DC088DECA8
:1037E00090E09093DF088093DE088CEC90E090935B
:1037F000E1088093E00888EC90E09093E3088093E0
:10380000E20889EC90E09093E5088093E4088EEC60
:1038100090E09093E7088093E6081093E808B0934F
:10382000E908A093EA08F093EB08E093EC08109203
:10383000F0081092EF082093F1083093F2084093BB
:10384000F3085093F4087093EE086093ED088FE945
:1038500097E09093FA088093F90883EE97E09093AD
:10386000FC088093FB0885ED90E09093FE08809320
:10387000FD0884ED90E0909300098093FF0880EDAF
:1038800090E0909302098093010981ED90E090937C
:1038900004098093030986ED90E0909306098093D4
:1038A000050910930709B0930809A0930909F0933B
:1038B0000A09E0930B0910920F0910920E09209348
:1038C0001009309311094093120950931309709312
:1038D0000D0960930C0987E298E090931909809391
:1038E00018098BE698E090931B0980931A0985E3E9
:1038F00091E090931D0980931C0984E391E09093DB
:103900001F0980931E0980E391E090932109809321
:10391000200981E391E0909323098093220986E3B3
:1039200091E0909325098093240910932609B09380
:103930002709A0932809F0932909E0932A091F91E8
:103940000895CF93DF93C0E0D0E006C0C60FD71F25
:10395000615070408040904061157105810591056E
:10396000A9F78FEA98E066EE74E00E940A18CE018B
:10397000DF91CF910895CF93DF93EB01892B39F538
:103980008FEA98E067EE74E00E940D18F8948DE0DD
:1039900061E00E942A158FEA98E0BE014AE050E0FB
:1039A0000E94EB178DE060E00E94DD1560E472E498
:1039B0008FE090E00E94A11C8DE061E00E94DD1587
:1039C00060E472E48FE090E00E94A11CE4CFDF91FC
:1039D000CF910895FC017583648371876087578355
:1039E000468353874287158A15861486178616865E
:1039F00021E0248B8FEF9FEF938B828B918B808BB9
:103A0000268B08952F923F924F925F926F927F92F2
:103A10008F929F92AF92BF92CF92DF92EF92FF92DE
:103A20000F931F93DF93CF93CDB7DEB72E970FB6CB
:103A3000F894DEBF0FBECDBF9E878D871B015E83CE
:103A40004D83A701260171E0C72ED12CC21AD30ADB
:103A5000C901880F991F66277727681B790B7A831E
:103A600069836D807E8008946108710883E0882EE8
:103A7000912C8E0C9F1C790181E090E09C838B83BC
:103A8000AA24BB2410E0D801A170B070B887AF831E
:103A9000FA013196FA87E987B801627070707C8705
:103AA0006B8777C0D7FC0AC00894E108F1088981C8
:103AB0009A8102969A838983C80ED91E0894A11C04
:103AC000B11CAB81BC811296BC83AB83EF81F885BE
:103AD000EF2B41F1AD85BE85ED91FC911197B501BC
:103AE000620D731D4D815E814E195F099701220F92
:103AF000331F89859A85280F391F0284F385E02DAD
:103B0000CD0182011995AD85BE85ED91FC9111978E
:103B1000B701620D731D0284F385E02DCD01A30171
:103B200094011995EB85FC85EF2B41F1AD85BE85A0
:103B3000ED91FC911197B1016A197B094D815E816C
:103B40004E195F099701220F331F89859A85280F27
:103B5000391F0284F385E02DCD0182011995AD85D1
:103B6000BE85ED91FC911197B1016E197F09028418
:103B7000F385E02DCD01A30194011995EB81FC8122
:103B8000CE0EDF1E08946108710862E070E0860EB8
:103B9000971EAE14BF040CF485CF2E960FB6F89482
:103BA000DEBF0FBECDBFCF91DF911F910F91FF9070
:103BB000EF90DF90CF90BF90AF909F908F907F90CD
:103BC0006F905F904F903F902F9008956F927F92EB
:103BD0008F929F92AF92BF92CF92DF92EF92FF921D
:103BE0000F931F937C014B013A0159016801DC01DD
:103BF000ED91FC91421B530B220F331F2F5F3F4F60
:103C00000284F385E02D1995C701B401A301950144
:103C100003E0EE24FF240E94021D1F910F91FF90EC
:103C2000EF90DF90CF90BF90AF909F908F907F905C
:103C30006F9008952F923F924F925F926F927F9272
:103C40008F929F92AF92BF92CF92DF92EF92FF92AC
:103C50000F931F93DF93CF9300D00F92CDB7DEB7B2
:103C60003C017C836B836A015901FA82E982222438
:103C700033249801241B350B37FF03C03095219561
:103C80003F4FC5014B815C81841B950B97FF03C09F
:103C9000909581959F4F821793075CF481E0282EC1
:103CA000312CC601CB80DC809C838B83C8018501CD
:103CB0005C018B819C81A816B90644F4C501AB80D8
:103CC000BC809C838B83C80186016C012501AB817C
:103CD000BC814A1A5B0A7801EC18FD08F7FE04C0A3
:103CE000F094E194F108F394C016D10624F08824EE
:103CF0008A94982C03C0B1E08B2E912CC20162E013
:103D000070E00E940B3F8B0125C0D301ED91FC9127
:103D10002114310441F00480F581E02DC301B60186
:103D20004B815C8107C00480F581E02DC3016B816C
:103D30007C81A60129813A8119950E191F0917FF67
:103D400004C0C80CD91C040D151DEB81FC813196F3
:103D5000FC83EB834B815C81A416B506B4F60F900F
:103D60000F900F900F90CF91DF911F910F91FF90C7
:103D7000EF90DF90CF90BF90AF909F908F907F900B
:103D80006F905F904F903F902F9008954F925F9269
:103D90006F927F928F929F92AF92BF92CF92DF925B
:103DA000EF92FF920F931F936C015B014A0139015F
:103DB0002801DC01ED91FC910484F585E02D87015B
:103DC0001995D601ED91FC91A40141505040440D4C
:103DD000551D0484F585E02DC601B50193011995A3
:103DE000D601ED91FC910284F385E02DC601B50169
:103DF000A40192011995D601ED91FC910894A108B6
:103E0000B108A60CB71C0284F385E02DC601B501EC
:103E1000A401920119951F910F91FF90EF90DF90EF
:103E2000CF90BF90AF909F908F907F906F905F905A
:103E30004F9008952F923F924F925F926F927F9290
:103E40008F929F92AF92BF92CF92DF92EF92FF92AA
:103E50000F931F93DF93CF93CDB7DEB72F970FB696
:103E6000F894DEBF0FBECDBF5C015E834D83188723
:103E70000F83FA86E986CB86DC0118968D919C919A
:103E80001997681779070CF0A4C01A968D919C9128
:103E90001B97481759070CF09CC0EC2DF0E0FF87EA
:103EA000EE87CF01880F991F880F991F8E0F9F1FD4
:103EB000860F971F181619060CF08BC0CF01A3E0D0
:103EC000880F991FAA95E1F7840F951F18161906F8
:103ED0000CF07FC085E0289FA00111245A834983FC
:103EE0002B011B011C825C81553011F480E005C060
:103EF000E981FA81EC5FFD4F84912C863D866D80CF
:103F00007E8043011B82C82EDD2480FF1CC0D501AA
:103F1000ED91FC91BB85B13049F40480F581E02D31
:103F2000C501B201A3012F81388522C00088F18923
:103F3000E02DC5016C857D85A4012E853F85890115
:103F4000EF80F88423C0E985FA852F813885E21750
:103F5000F307E9F0D501ED91FC91BB85B13051F447
:103F60000480F581E02DC501B201A30129853A85C0
:103F700019950DC00088F189E02DC5016C857D85FE
:103F8000A4012E853F858901E984FA841995EB8186
:103F9000EF5FEB832E853F85820E931E0894611C94
:103FA000711CE83021F0D594C7948C2DACCF3C81A6
:103FB0003F5F3C834E855F85240E351E0894411C6F
:103FC000511C89819A8101969A838983363009F040
:103FD0008ACF2F960FB6F894DEBF0FBECDBFCF911C
:103FE000DF911F910F91FF90EF90DF90CF90BF90E6
:103FF000AF909F908F907F906F905F904F903F9089
:104000002F900895CF92EF92FF920F931F93CF932B
:10401000DF93EC01262F6A3061F42C8930E003E055
:10402000220F331F0A95E1F78E859F85820F931F1C
:1040300037C06D30C9F16C857D854E855F850889F7
:104040001989EA88FB88CC880E941A1F2C8986E08F
:10405000289FB00111248C859D85680F791F7D876D
:104060006C878E89882301F1422F50E08AEF9FEF01
:104070009C01429FC001439F900D529F900D1124BF
:1040800028853985820F931F861797076CF413E0F4
:10409000440F551F1A95E1F78E859F85840F951F54
:1040A0009F878E871D861C8681E090E0DF91CF91EF
:1040B0001F910F91FF90EF90CF900895FC017587AD
:1040C0006487578746870895FC01662309F461E0F9
:1040D000648B0895FC01718B608B738B628B0895E8
:1040E000FC01138212828BEE95E09183808360A3A2
:1040F00041A322A381E0878B14A213A20895DC01BF
:1041000057968C915797882329F06EBD0DB407FE02
:10411000FDCF089530E840E050E070E0832F90E05C
:10412000862397235896ED91FC91599795962C915B
:104130009597892B21F08081822B808304C0808118
:104140002095282320835A96ED91FC915B978081DE
:1041500096969C919697892B80835A96ED91FC9127
:104160005B97908196968C91969780958923808312
:1041700036954F5F5F4F4830510581F608950F9394
:104180001F938C01DC015E96ED91FC915F9790810D
:1041900098968C9198978095892380835C96ED9171
:1041A000FC915D97908197968C918095892380836F
:1041B000C8010E947F20D8015C96ED91FC915D972B
:1041C000808197969C91892B80831F910F910895F0
:1041D0000F931F938C01DC015E96ED91FC915F972C
:1041E000808198969C919897892B80835C96ED911D
:1041F000FC915D97908197968C918095892380831F
:10420000C8010E947F20D8015C96ED91FC915D97DA
:10421000808197969C91892B80831F910F9108959F
:10422000CF92DF92EF92FF920F931F937C01162F94
:10423000C42ED22E6AE20E94BF20C70160E00E9415
:10424000E820F70161A5610FC7010E94E820C701BE
:1042500060E00E94E820F70161A56D0DC7010E9492
:10426000E820C7016BE20E94BF20C70160E00E9406
:10427000E820F70162A56C0DC7010E94E820C70184
:1042800060E00E94E820F70162A5600FC7010E946C
:10429000E820C7016CE20E94BF201F910F91FF90A0
:1042A000EF90DF90CF900895EF92FF920F931F93BE
:1042B000CF93DF93EC017B01288521500A850150C3
:1042C00060E040E00E941021EE8DFF8D808198A576
:1042D000892B8083EC8DFD8D90818FA18095892322
:1042E00080831A850EC0088509C0CE016F2D0E94FB
:1042F0007F20CE016E2D0E947F2001500023A9F760
:104300001150112381F7EC8DFD8D80819FA1892BA8
:104310008083DF91CF911F910F91FF90EF900895CF
:10432000FF920F931F938C01F62E672FDC015E9690
:10433000ED91FC915F97808198969C919897892B3D
:1043400080835C96ED91FC915D97908197968C911E
:10435000809589238083C8010E947F20C8016F2D2A
:104360000E947F20D8015C96ED91FC915D97808141
:1043700097969C91892B80831F910F91FF900895B0
:10438000FF920F931F93CF93DF93EC01F22E132F25
:1043900077FD2EC088859985681779074CF557FDFC
:1043A00027C08A859B854817590714F5262F2F5F4C
:1043B000042F0F5FCE010E941021EE8DFF8D8081B2
:1043C00098A5892B8083EC8DFD8D90818FA18095A0
:1043D00089238083CE01612F0E947F20CE016F2D23
:1043E0000E947F20EC8DFD8D80819FA1892B808391
:1043F000DF91CF911F910F91FF900895DF92EF927F
:10440000FF920F931F93CF93DF93EC01FB01790190
:10441000D02E8885998568177907D4F52A853B853C
:1044200042175307ACF5C701840F951F28173907AA
:104430001CF47901E41AF50A042F01500E0DCE0187
:104440006E2F2E2F0E941021EE8DFF8D808198A55A
:10445000892B8083EC8DFD8D90818FA180958923A0
:10446000808308C0CE01612F0E947F20CE016D2D78
:104470000E947F200894E108F1088FEFE8168FEF83
:10448000F80681F7EC8DFD8D80819FA1892B8083BB
:10449000DF91CF911F910F91FF90EF90DF900895E2
:1044A000DF92EF92FF920F931F93CF93DF93EC0174
:1044B000FA017901D02E2885398562177307D4F562
:1044C0008A859B8548175907ACF5C701860F971F4A
:1044D000281739071CF47901E61AF70A262F21500C
:1044E0002E0DCE014E2F0E2F0E941021EE8DFF8D2E
:1044F000808198A5892B8083EC8DFD8D90818FA183
:1045000080958923808308C0CE01612F0E947F207F
:10451000CE016D2D0E947F200894E108F1088FEFF5
:10452000E8168FEFF80681F7EC8DFD8D80819FA155
:10453000892B8083DF91CF911F910F91FF90EF9096
:10454000DF900895AF92BF92CF92DF92EF92FF92E9
:104550000F931F93CF93DF936C015901E801DC01A6
:1045600018962D913C911997621773070CF057C05C
:104570001A96ED91FC911B974E175F070CF04FC0F8
:10458000C501860F971F281739071CF45901A61A71
:10459000B70ACE01840F951FE817F9071CF4EF0145
:1045A000C41BD50B262F21502A0D042F01500C0FB0
:1045B000C6010E941021D6015E96ED91FC915F9795
:1045C000808198969C919897892B80835C96ED9139
:1045D000FC915D97908197968C918095892380833B
:1045E0008E010EC0C6016F2D0E947F20C6016E2D68
:1045F0000E947F2021971C161D06A4F30150104035
:104600001016110614F4E501F6CFD6015C96ED9173
:10461000FC915D97808197969C91892B8083DF9197
:10462000CF911F910F91FF90EF90DF90CF90BF90AF
:10463000AF9008951F93CF93DF93EC01162F66E39D
:104640000E94BF2013701D8B113051F0113028F0E3
:10465000123049F01330F1F411C0CE0168EC05C0FE
:10466000CE0168EA0DC0CE0168E00E94E82080E833
:1046700090E09987888780EA90E00AC0CE0168E6DA
:104680000E94E82080EA90E09987888780E890E09F
:104690009B878A87DF91CF911F910895662311F43C
:1046A00060E201C061E20E94BF200895AF92BF9214
:1046B000CF92DF92EF92FF920F931F93CF93DF93EE
:1046C0005C01FB01EB012196D49031C08E010F5F9C
:1046D0001F4FFE016491C5010E94BF20780108941C
:1046E000E11CF11CF801C4900C2D0F77E701102F8D
:1046F00008C0FE012196E491C5016E2F0E94E820BA
:1047000011501123B1F7E701C00FD11DC7FE0EC034
:10471000FE018491682F70E06F3F710511F464EF22
:1047200071E0219680E090E00E946B12DA94DD2027
:1047300069F6DF91CF911F910F91FF90EF90DF907D
:10474000CF90BF90AF9008950F931F93CF93DF93B7
:10475000EC018B0160E870E040EA50E00E94EA1C46
:104760001AA619A689A161E00E942A1588A161E014
:104770000E942A15E8A12E2F30E0F901EE5CFE4FD1
:10478000E491F0E0EE0FFF1FE250FF4F859194910E
:104790009D8F8C8F28583E4FF90184918FA3E9A1FA
:1047A0002E2F30E0F901EE5CFE4FE491F0E0EE0FC9
:1047B000FF1FE250FF4F859194919F8F8E8F285855
:1047C0003E4FF901849188A78F89882361F00E9468
:1047D000F53780E00E94E43781E00E94D63780E020
:1047E0000E94DF373DC08CA161E00E942A158BA199
:1047F00061E00E942A15ECA18E2F90E0FC01EE5C96
:10480000FE4FE491F0E0EE0FFF1FE250FF4FA59145
:10481000B491BB8FAA8F88589E4FFC0144914EA340
:10482000EBA12E2F30E0F901EE5CFE4FE491F0E0B9
:10483000EE0FFF1FE250FF4F85919491998F888F63
:1048400028583E4FF90184918DA38C9140954823BF
:104850004C93E88DF98D90818DA18095892380837B
:10486000EC8DFD8D90818FA18095892380838AA115
:10487000882309F161E00E942A158AA161E00E9463
:10488000DD1564EF71E080E090E00E946B128AA178
:1048900060E00E94DD1564EF71E080E090E00E942E
:1048A0006B128AA161E00E94DD1564EF71E080E087
:1048B00090E00E946B120115110521F0CE01B801A4
:1048C0000E945623DF91CF911F910F9108951F935E
:1048D000CF93DF93EC01162F6FEF76E00E94A423B5
:1048E000112351F4CE016AE377E00E94562382E05F
:1048F00089A781E08AA705C0CE0167E477E00E941E
:104900005623CE0164E577E00E945623DF91CF91D4
:104910001F91089582E090E0A0E0B0E080932B0921
:1049200090932C09A0932D09B0932E09109242095F
:1049300010924C0910924B0983E196E090934A093A
:104940008093490910924E0910926B0910926C09DC
:1049500010926F091092710908952F923F924F9211
:104960005F926F927F928F929F92AF92BF92CF92FF
:10497000DF92EF92FF920F931F93DF93CF93CDB708
:10498000DEB7C754D0400FB6F894DEBF0FBECDBF20
:10499000582E492EFB013A01190180A191A1998B52
:1049A000888B23E136E03F872E8782A18A8B83A103
:1049B0008B8B84A195A1A6A1B7A18C8B9D8BAE8B6F
:1049C000BF8B80A591A5A2A5B3A5888F998FAA8F2B
:1049D000BB8F84A595A5A6A5B7A58C8F9D8FAE8FFF
:1049E000BF8F80A988A381A992A9A3A9B4A989A3EB
:1049F0009AA3ABA3BCA385A996A9A7A9B0AD8DA383
:104A00009EA3AFA3B8A781AD92AD9AA789A71EA612
:104A10001DA63CA72BA718AA7A018E01025F1F4F83
:104A20003BE2A32EB12CAC0EBD1E4E010894811C9E
:104A3000911C35C0D7018C918F3221F40894E11C70
:104A4000F11C2DC0422F4E194D3008F04CE0C42E01
:104A5000DD24C401B701A6010E94E93BF401EC0D7D
:104A6000FD1D1082C5010E94B529C501B801A40130
:104A700021E00E94FD2E882351F4E52DF42D1382B0
:104A8000128283E196E091838083158266C0EC0CEC
:104A9000FD1CC8010E94B529C50158018C01C70140
:104AA0006FE270E00E94DE3B9C01009719F6E61869
:104AB000F708F101F182E082E52DF42DD80112967C
:104AC0008D919C9113979383828383E196E09183E8
:104AD000808314968C911497848315968C911597E6
:104AE000858316962D913D914D915C911997268362
:104AF0003783408751871A962D913D914D915C9156
:104B00001D9722873387448755871E962D913D91A7
:104B10004D915C91519726873787408B518B5296E8
:104B20008C915297828B53962D913D914D915C9132
:104B30005697238B348B458B568B57962D913D91F1
:104B40004D915C915A97278B308F418F528F5B9696
:104B50008D919C915C97948F838F852D942DC95B4B
:104B6000DF4F0FB6F894DEBF0FBECDBFCF91DF9100
:104B70001F910F91FF90EF90DF90CF90BF90AF907B
:104B80009F908F907F906F905F904F903F902F906D
:104B900008959F92AF92BF92CF92DF92EF92FF92D1
:104BA0000F931F93DF93CF93CDB7DEB7C657D04097
:104BB0000FB6F894DEBF0FBECDBFC82E992E8A0166
:104BC000D22E43E0A42EB12CAC0EBD1EC501A8010F
:104BD0009E012F5F3F4F0E94AD24E980FA80E00ED6
:104BE000F11EF701808143E156E02885882309F012
:104BF0003FC08D819E819BA38AA359A348A38F8127
:104C00008CA32DA389859A85AB85BC858EA39FA394
:104C1000A8A7B9A78D859E85AF85B8898AA79BA7C8
:104C2000ACA7BDA789899A89AB89BC898EA79FA7A4
:104C3000A8ABB9AB8D898AAB8E899F89A88DB98DB8
:104C40008BAB9CABADABBEAB8A8D9B8DAC8DBD8D64
:104C50008FAB98AFA9AFBAAF8E8D9F8D9CAF8BAF46
:104C60008C2D992DBE01605E7F4F49EF54E09FC0AF
:104C7000FE01FF96118210825EAF4DAFFE01EE5B2A
:104C8000FF4F10822223A9F02250CE01CD96223070
:104C900048F469E479E0A7012D2D0E94FD2E8823B8
:104CA00081F407C0B501A7012D2D0E94FD2E882398
:104CB00029F48C2D992D0E9421277BC0C5010E94CB
:104CC000B529F6E0DF2259F0FE01E05BFF4F40819D
:104CD000518162817381CE01CD960E94A5289E01EB
:104CE000265A3F4FFE01FF9680819181F9019383FF
:104CF000828383E196E091838083FE01EF5BFF4F27
:104D00008081F9018483FE01EE5BFF4F8081F90110
:104D10008583FE01ED5BFF4F80819181A281B3818C
:104D2000F90186839783A087B187FE01E95BFF4F76
:104D300080819181A281B381F90182879387A487C1
:104D4000B587FE01E55BFF4F80819181A281B38130
:104D5000F90186879787A08BB18BFE01E15BFF4F3E
:104D60008081F901828BFE01E05BFF4F80819181A0
:104D7000A281B381F901838B948BA58BB68BFE0145
:104D8000EC5AFF4F80819181A281B381F901878B19
:104D9000908FA18FB28FFE01E85AFF4F80819181E1
:104DA000F901948F838F8C2D992DB901A7010E9451
:104DB0002B288C2D992DCA58DF4F0FB6F894DEBFE3
:104DC0000FBECDBFCF91DF911F910F91FF90EF905C
:104DD000DF90CF90BF90AF909F900895EF92FF9299
:104DE0000F931F93CF93DF93EC01462F8C01055C4B
:104DF0001F4FC80161E00E943E328823D1F0FC2E93
:104E0000ED2ECE01B80141E00E94AB33882339F486
:104E1000CE01B80140E00E94AB33882351F0CE01AF
:104E20004E966F2D7E2D0E94EB2B882319F081E08A
:104E300001C080E0DF91CF911F910F91FF90EF9023
:104E40000895FC011382128288EE93E0A0E0B0E0A6
:104E500084839583A683B78383E096E091838083E0
:104E6000128E118E14860895FC0183E096E09183E2
:104E700080830895DF93CF930F92CDB7DEB7FC0107
:104E80006983A081B18112962D913C911397BE0147
:104E90006F5F7F4F41E050E0F90119950F90CF917E
:104EA000DF910895DC015996ED91FC915A97309766
:104EB00019F420E030E018C02389348945895689E7
:104EC00082859385A485B585281B390B4A0B5B0B1E
:104ED0002030B0E83B07B0E04B07B0E05B0720F0C4
:104EE0002FEF3FE740E050E0C9010895DC015996FB
:104EF000ED91FC915A97309711F480E008958581E7
:104F0000811181E00895CF93DF93EC01898D9A8D13
:104F1000009741F00E94B529898D9A8D0E94FF3932
:104F20001A8E198EDF91CF910895FC01818D928D9B
:104F3000009711F480E008950E94A5280895FC01CF
:104F4000818D928D009711F00E946B290895FC01CC
:104F5000818D928D009719F420E030E003C00E940B
:104F60008C2A9C01C9010895DF93CF930F92CDB78E
:104F7000DEB7FC01818D928D009749F0BE016F5F15
:104F80007F4F41E050E00E948C2A019719F02FEFEB
:104F90003FEF03C08981282F30E0C9010F90CF91E6
:104FA000DF910895EF92FF920F931F93DF93CF93BA
:104FB0000F92CDB7DEB77C01DC0159968D919C91A3
:104FC0005A97009719F400E010E01FC0BE016F5F10
:104FD0007F4F41E050E00E948C2A019719F00FEFBB
:104FE0001FEF13C08981082F10E0D7015996ED916A
:104FF000FC915A9742855385648575854150504090
:1050000060407040CF010E94A528C8010F90CF9149
:10501000DF911F910F91FF90EF900895CF93DF9351
:10502000EC01E98DFA8D309761F013821282CF0185
:105030000E94D12C9C01E98DFA8D82819381892B6C
:1050400031F081E090E09B838A8320E030E0C90169
:10505000DF91CF910895EF92FF920F931F93CF931B
:10506000DF93EC01F62EE72E8A011B821A8288EE6E
:1050700093E0A0E0B0E08C839D83AE83BF8383E0A8
:1050800096E0998388838DE190E00E9462399A8F3F
:10509000898F009791F0DC018F2D9E2D9C01F901E5
:1050A0008DE101900D928150E1F7CE010C96B8018F
:1050B0004CE050E00E94E93B188EDF91CF911F91A8
:1050C0000F91FF90EF900895CF93DF93EC01DB01F8
:1050D00080E090E020E2FD01E80FF91F20830196B7
:1050E0008B309105C1F757E040E021C02E3219F016
:1050F00086EE97E007C05A3019F15AE048E017C031
:105100003217F1F0FC01019634913323C9F754179B
:10511000B8F02132A8F02F3798F4822F81568A31C7
:1051200008F42052FD01E40FF11D20834F5F299107
:105130002223E1F690E08C91803219F091E001C0D9
:1051400090E0892FDF91CF9108956F927F928F9297
:105150009F92AF92BF92CF92DF92EF92FF920F9306
:105160001F93CF93DF93EC017A018B012D812223D2
:1051700009F480C08B899C89AD89BE898417950705
:10518000A607B70708F476C085C0E114F10401054D
:10519000110549F41E821F82188619861A861B86FD
:1051A0001C861D8665C02A853B854C855D85EB8DFB
:1051B000FC8D858590E0099621503040404050405C
:1051C00039014A01082E04C0969487947794679415
:1051D0000A94D2F72F5F3F4F4F4F5F4F0894E1087B
:1051E000F108010911095701680104C0D694C79458
:1051F000B794A7948A95D2F70894E11CF11C011D7D
:10520000111DA614B704C804D90428F021153105CE
:105210004105510549F48F89988DA98DBA8D8E83EA
:105220009F83A887B98716C0A618B708C808D908E9
:1052300011C04E815F81688579858B8D9C8D94012D
:105240000E948C350894A108B108C108D1088823B0
:1052500031F410C086E0882E912C8C0E9D1EA11476
:10526000B104C104D10429F7EA86FB860C871D87A7
:1052700081E001C080E0DF91CF911F910F91FF90FD
:10528000EF90DF90CF90BF90AF909F908F907F90E6
:105290006F900895223009F078CFE6CFCF93DF9357
:1052A000EC01462F6E857F85888999890E9470332D
:1052B000882319F420E030E00AC08A89282F30E0E2
:1052C00095E0220F331F9A95E1F72A58364FC9010E
:1052D000DF91CF9108950F931F93CF93DF938C01AC
:1052E000FC0185818823D9F1848187FF35C0C801FD
:1052F00061E00E944E29EC01009789F1F801858157
:10530000823040F483899489A589B6898C8F9D8FDA
:10531000AE8FBF8FF8018789908D9B8F8A8F878989
:10532000908DA18DB28DCD01AA27BB279D8B8C8B33
:10533000E0917409F0917509309751F0BE016A5EF1
:105340007F4FCE0148961995888D998D9B8B8A8BBE
:10535000F80184818F7784830E94113301C080E03B
:10536000DF91CF911F910F910895CF93DF93EC01BF
:105370000E946B29882311F01D8281E0DF91CF917B
:1053800008956F927F928F929F92AF92BF92CF9229
:10539000DF92EF92FF920F931F93DF93CF9300D092
:1053A0000F92CDB7DEB77C015A016B01DC01159677
:1053B0008C911597813009F08FC014968C9181FFE4
:1053C0008BC09EC00097A105B10511F481E085C096
:1053D000F7016284738484849584C701B601A501B2
:1053E0000E94A528882309F477C0D7015B968D9188
:1053F0009C915C97A114B104C104D10489F457961F
:105400004D915D916D917C915A970E94FF35882353
:1054100009F462C0F701178A108E118E128E3DC0FA
:10542000D70116964D915D916D917C9119979E01D2
:105430002F5F3F4F0E948C35882309F44DC0D70160
:105440005B96ED91FC915C9749815A816B817C81DF
:105450008789803129F088EF9FEFAFEFBFE004C06C
:1054600088EF9FEFA0E0B0E0481759076A077B0775
:10547000A0F4CF010E94FF35882371F1F701468126
:10548000578160857185838D948D0FEF1FEF2FEF0E
:105490003FE00E94F0348823F9F0D7015396AD9293
:1054A000BD92CD92DC92569714968C911497806899
:1054B00014968C93C7010E946B29882369F0B6016A
:1054C000A5016A147B048C049D0410F4B401A301AB
:1054D000C7010E94A52801C080E00F900F900F9097
:1054E0000F90CF91DF911F910F91FF90EF90DF9080
:1054F000CF90BF90AF909F908F907F906F900895C6
:10550000F70183899489A589B68984179507A60729
:10551000B70708F057CFE0CF2F923F924F925F929C
:105520006F927F928F929F92AF92BF92CF92DF92B3
:10553000EF92FF920F931F93CF93DF93EC012A0119
:105540008D81882309F4C6C08C8180FFC3C0D8C078
:1055500025014E185F084B0176E0272E312C2C0ECA
:105560003D1E3201B1C02A853B854C855D856FEFBC
:10557000A62E61E0B62EA222B3228D8179018A0186
:1055800099E016950795F794E7949A95D1F7EB8DE6
:10559000FC8D823049F4428D538D648D758D4E0D96
:1055A0005F1D601F711F3FC0D480DA94DE20A114FC
:1055B000B104D9F4DD20C9F42115310541055105A7
:1055C00049F48F89988DA98DBA8D8E839F83A88782
:1055D000B9870BC04E815F8168857985CF019101C4
:1055E0000E948C35882309F475C0EB8DFC8D4E81AB
:1055F0005F816885798542505040604070400584E5
:1056000004C0440F551F661F771F0A94D2F7868582
:105610009785A089B189480F591F6A1F7B1F4D0DBF
:10562000511D611D711D80E092E08A199B09630183
:105630008615970508F46C018C8186FD06C080E014
:10564000C81682E0D80609F073C08091CF0590910A
:10565000D005A091D105B091D205481759076A0726
:105660007B0709F465C08091760B9091770B9501CB
:10567000860174010E949131882361F18C0C9D1C7C
:1056800012C095012A58364FA9014C0D5D1DD40159
:10569000F90102C081918D93E417F507D9F7E21B58
:1056A000F30B8E0E9F1E960140E050E08A859B858D
:1056B000AC85BD85820F931FA41FB51F8A879B876A
:1056C000AC87BD876C187D086114710409F04BCF5D
:1056D000A20102C04FEF5FEFCA01DF91CF911F918E
:1056E0000F91FF90EF90DF90CF90BF90AF909F9081
:1056F0008F907F906F905F904F903F902F90089584
:10570000AB88BC88CD88DE88EA84FB840C851D8547
:105710009A0140E050E0D601C5018E199F09A00B07
:10572000B10B82179307A407B50708F411CF13CF65
:10573000CB01BA0140E00E947033882309F0A1CF69
:10574000C9CFCF92DF92EF92FF920F931F93DF9317
:10575000CF930F92CDB7DEB76C01FC01858182300B
:1057600070F0E284F38404851585C601BE016F5F85
:105770007F4F41E050E00E948C2A019769F020E0C1
:1057800030E0C9010F90CF91DF911F910F91FF90F1
:10579000EF90DF90CF900895F60182859385A485E0
:1057A000B5854F96A11DB11D82879387A487B587C4
:1057B000F5E016950795F794E794FA95D1F78E2DB5
:1057C0008F70282F30E0E5E0220F331FEA95E1F7D4
:1057D0002A58364FD6CF0F931F93CF93DF93EC0108
:1057E0008B018D81882309F041C0FB0187898031BD
:1057F000B1F482E08D831F8A188E198E1A8E808DE7
:10580000918DA0E0B0E045E0880F991FAA1FBB1F53
:105810004A95D1F78B8B9C8BAD8BBE8B15C080329C
:1058200029F583E08D83FB01428D538D648D758D49
:105830004F8B588F698F7A8F9E012D5E3F4FC80125
:105840000E945836882391F01C8F0B8F81E08C8347
:105850001E821F82188619861A861B861C861D8644
:105860001E861F86188A198A1A8A01C080E0DF9175
:10587000CF911F910F9108951F93CF93DF93EC0168
:10588000142FE62FF0E075E0EE0FFF1F7A95E1F799
:10589000EA58F64F8385817121F0842F827409F0D4
:1058A00054C06A8B8091CF059091D005A091D1050D
:1058B000B091D2058E879F87A88BB98B84899589F3
:1058C000A0E0B0E0BC0155274427828D938DA0E075
:1058D000B0E0482B592B6A2B7B2B4F8B588F698F4D
:1058E0007A8F838590E088719070009751F4848D51
:1058F000958DA68DB78D8B8B9C8BAD8BBE8B81E0F0
:105900000CC0409711F59E012D5E3F4F8B8D9C8DF5
:105910000E9458368823C9F084E08D83812F8F70D0
:105920008C831E821F82188619861A861B861C8607
:105930001D8616FD02C081E009C0CE0140E050E0A6
:1059400060E070E00E94C12901C080E0DF91CF914A
:105950001F910895CF93DF93EC019C012A5F3F4F85
:105960008B8D9C8D41E050E060E070E00E94C73676
:105970008823A1F08F89988DA98DBA8D0097A105F4
:10598000B10559F48E819F81A885B9858F8B988F39
:10599000A98FBA8F8C8180688C8381E0DF91CF9151
:1059A00008952F923F924F925F927F928F929F9293
:1059B000AF92BF92CF92DF92EF92FF920F931F931D
:1059C000DF93CF9300D000D0CDB7DEB76C01162F98
:1059D000072F5E834D83DC0115968C9115978130DE
:1059E00009F070C114968C9181FF6CC18EC1F601D3
:1059F000438954896589768982859385A485B5858F
:105A000084179507A607B70731F0C6010E94A5289D
:105A1000882309F457C1812F902F9C0129012D80E3
:105A20003E8017C1D6015B96ED91FC915C97DA013F
:105A3000C90119E0B695A795979587951A95D1F75D
:105A400074807A9478227FEF872E71E0972E8222DD
:105A50009322772009F04EC08114910409F04AC0C6
:105A6000D60116964D915D916D917C9119974115D6
:105A700051056105710581F457968D919D910D90A9
:105A8000BC91A02D0097A105B10549F1F6018683CF
:105A90009783A087B1872EC0CF019E012F5F3F4F14
:105AA0000E948C35882309F414C129813A814B81E5
:105AB0005C81D6015B96ED91FC915C978789803182
:105AC00029F088EF9FEFAFEFBFE004C088EF9FEFB2
:105AD000A0E0B0E0281739074A075B0730F0C6019D
